{
  "_format": "hh-sol-artifact-1",
  "contractName": "CollateralVault",
  "sourceName": "contracts/CollateralVault.sol",
  "abi": [
    {
      "inputs": [
        {
          "internalType": "address",
          "name": "_tghsxTokenAddress",
          "type": "address"
        },
        {
          "internalType": "address",
          "name": "_ethBtcPriceFeed",
          "type": "address"
        },
        {
          "internalType": "address",
          "name": "_btcUsdPriceFeed",
          "type": "address"
        },
        {
          "internalType": "address",
          "name": "_treasury",
          "type": "address"
        },
        {
          "internalType": "uint256",
          "name": "_initialGhsPrice",
          "type": "uint256"
        }
      ],
      "stateMutability": "nonpayable",
      "type": "constructor"
    },
    {
      "inputs": [],
      "name": "EnforcedPause",
      "type": "error"
    },
    {
      "inputs": [],
      "name": "ExpectedPause",
      "type": "error"
    },
    {
      "inputs": [],
      "name": "InsufficientCollateral",
      "type": "error"
    },
    {
      "inputs": [],
      "name": "InsufficientDebt",
      "type": "error"
    },
    {
      "inputs": [],
      "name": "InvalidAddress",
      "type": "error"
    },
    {
      "inputs": [],
      "name": "InvalidAmount",
      "type": "error"
    },
    {
      "inputs": [],
      "name": "InvalidPrice",
      "type": "error"
    },
    {
      "inputs": [],
      "name": "InvalidThreshold",
      "type": "error"
    },
    {
      "inputs": [
        {
          "internalType": "address",
          "name": "owner",
          "type": "address"
        }
      ],
      "name": "OwnableInvalidOwner",
      "type": "error"
    },
    {
      "inputs": [
        {
          "internalType": "address",
          "name": "account",
          "type": "address"
        }
      ],
      "name": "OwnableUnauthorizedAccount",
      "type": "error"
    },
    {
      "inputs": [],
      "name": "PriceStale",
      "type": "error"
    },
    {
      "inputs": [],
      "name": "ReentrancyGuardReentrantCall",
      "type": "error"
    },
    {
      "inputs": [],
      "name": "TransferFailed",
      "type": "error"
    },
    {
      "inputs": [],
      "name": "VaultNotLiquidatable",
      "type": "error"
    },
    {
      "inputs": [],
      "name": "VaultUndercollateralized",
      "type": "error"
    },
    {
      "anonymous": false,
      "inputs": [
        {
          "indexed": true,
          "internalType": "address",
          "name": "user",
          "type": "address"
        },
        {
          "indexed": false,
          "internalType": "uint256",
          "name": "amount",
          "type": "uint256"
        },
        {
          "indexed": true,
          "internalType": "uint256",
          "name": "blockNumber",
          "type": "uint256"
        }
      ],
      "name": "CollateralDeposited",
      "type": "event"
    },
    {
      "anonymous": false,
      "inputs": [
        {
          "indexed": true,
          "internalType": "address",
          "name": "user",
          "type": "address"
        },
        {
          "indexed": false,
          "internalType": "uint256",
          "name": "amount",
          "type": "uint256"
        }
      ],
      "name": "CollateralWithdrawn",
      "type": "event"
    },
    {
      "anonymous": false,
      "inputs": [
        {
          "indexed": false,
          "internalType": "uint256",
          "name": "newPrice",
          "type": "uint256"
        },
        {
          "indexed": true,
          "internalType": "address",
          "name": "updater",
          "type": "address"
        }
      ],
      "name": "GhsPriceUpdated",
      "type": "event"
    },
    {
      "anonymous": false,
      "inputs": [
        {
          "indexed": true,
          "internalType": "address",
          "name": "previousOwner",
          "type": "address"
        },
        {
          "indexed": true,
          "internalType": "address",
          "name": "newOwner",
          "type": "address"
        }
      ],
      "name": "OwnershipTransferred",
      "type": "event"
    },
    {
      "anonymous": false,
      "inputs": [
        {
          "indexed": false,
          "internalType": "address",
          "name": "account",
          "type": "address"
        }
      ],
      "name": "Paused",
      "type": "event"
    },
    {
      "anonymous": false,
      "inputs": [
        {
          "indexed": false,
          "internalType": "uint256",
          "name": "newThreshold",
          "type": "uint256"
        },
        {
          "indexed": true,
          "internalType": "address",
          "name": "updater",
          "type": "address"
        }
      ],
      "name": "StalenesThresholdUpdated",
      "type": "event"
    },
    {
      "anonymous": false,
      "inputs": [
        {
          "indexed": true,
          "internalType": "address",
          "name": "user",
          "type": "address"
        },
        {
          "indexed": false,
          "internalType": "uint256",
          "name": "amount",
          "type": "uint256"
        },
        {
          "indexed": true,
          "internalType": "uint256",
          "name": "newRatio",
          "type": "uint256"
        }
      ],
      "name": "TGHSXBurned",
      "type": "event"
    },
    {
      "anonymous": false,
      "inputs": [
        {
          "indexed": true,
          "internalType": "address",
          "name": "user",
          "type": "address"
        },
        {
          "indexed": false,
          "internalType": "uint256",
          "name": "amount",
          "type": "uint256"
        },
        {
          "indexed": true,
          "internalType": "uint256",
          "name": "newRatio",
          "type": "uint256"
        }
      ],
      "name": "TGHSXMinted",
      "type": "event"
    },
    {
      "anonymous": false,
      "inputs": [
        {
          "indexed": false,
          "internalType": "address",
          "name": "account",
          "type": "address"
        }
      ],
      "name": "Unpaused",
      "type": "event"
    },
    {
      "anonymous": false,
      "inputs": [
        {
          "indexed": true,
          "internalType": "address",
          "name": "user",
          "type": "address"
        },
        {
          "indexed": true,
          "internalType": "address",
          "name": "liquidator",
          "type": "address"
        },
        {
          "indexed": false,
          "internalType": "uint256",
          "name": "repaidTGHSX",
          "type": "uint256"
        },
        {
          "indexed": false,
          "internalType": "uint256",
          "name": "liquidatedETH",
          "type": "uint256"
        },
        {
          "indexed": false,
          "internalType": "uint256",
          "name": "bonus",
          "type": "uint256"
        }
      ],
      "name": "VaultLiquidated",
      "type": "event"
    },
    {
      "inputs": [],
      "name": "LIQUIDATION_BONUS",
      "outputs": [
        {
          "internalType": "uint256",
          "name": "",
          "type": "uint256"
        }
      ],
      "stateMutability": "view",
      "type": "function"
    },
    {
      "inputs": [],
      "name": "MAX_LIQUIDATION_PERCENT",
      "outputs": [
        {
          "internalType": "uint256",
          "name": "",
          "type": "uint256"
        }
      ],
      "stateMutability": "view",
      "type": "function"
    },
    {
      "inputs": [],
      "name": "MAX_STALENESS_THRESHOLD",
      "outputs": [
        {
          "internalType": "uint256",
          "name": "",
          "type": "uint256"
        }
      ],
      "stateMutability": "view",
      "type": "function"
    },
    {
      "inputs": [],
      "name": "MIN_COLLATERAL_AMOUNT",
      "outputs": [
        {
          "internalType": "uint256",
          "name": "",
          "type": "uint256"
        }
      ],
      "stateMutability": "view",
      "type": "function"
    },
    {
      "inputs": [],
      "name": "MIN_DEBT_AMOUNT",
      "outputs": [
        {
          "internalType": "uint256",
          "name": "",
          "type": "uint256"
        }
      ],
      "stateMutability": "view",
      "type": "function"
    },
    {
      "inputs": [],
      "name": "MIN_STALENESS_THRESHOLD",
      "outputs": [
        {
          "internalType": "uint256",
          "name": "",
          "type": "uint256"
        }
      ],
      "stateMutability": "view",
      "type": "function"
    },
    {
      "inputs": [],
      "name": "PRICE_PRECISION",
      "outputs": [
        {
          "internalType": "uint256",
          "name": "",
          "type": "uint256"
        }
      ],
      "stateMutability": "view",
      "type": "function"
    },
    {
      "inputs": [],
      "name": "RATIO_PRECISION",
      "outputs": [
        {
          "internalType": "uint256",
          "name": "",
          "type": "uint256"
        }
      ],
      "stateMutability": "view",
      "type": "function"
    },
    {
      "inputs": [],
      "name": "btcUsdPriceFeed",
      "outputs": [
        {
          "internalType": "contract AggregatorV3Interface",
          "name": "",
          "type": "address"
        }
      ],
      "stateMutability": "view",
      "type": "function"
    },
    {
      "inputs": [
        {
          "internalType": "uint256",
          "name": "amount",
          "type": "uint256"
        }
      ],
      "name": "burnTGHSX",
      "outputs": [],
      "stateMutability": "nonpayable",
      "type": "function"
    },
    {
      "inputs": [],
      "name": "deposit",
      "outputs": [],
      "stateMutability": "payable",
      "type": "function"
    },
    {
      "inputs": [
        {
          "internalType": "address",
          "name": "",
          "type": "address"
        }
      ],
      "name": "emergencyAuthorized",
      "outputs": [
        {
          "internalType": "bool",
          "name": "",
          "type": "bool"
        }
      ],
      "stateMutability": "view",
      "type": "function"
    },
    {
      "inputs": [],
      "name": "ethBtcPriceFeed",
      "outputs": [
        {
          "internalType": "contract AggregatorV3Interface",
          "name": "",
          "type": "address"
        }
      ],
      "stateMutability": "view",
      "type": "function"
    },
    {
      "inputs": [],
      "name": "getEthGhsPrice",
      "outputs": [
        {
          "internalType": "uint256",
          "name": "",
          "type": "uint256"
        }
      ],
      "stateMutability": "view",
      "type": "function"
    },
    {
      "inputs": [],
      "name": "ghsUsdPrice",
      "outputs": [
        {
          "internalType": "uint256",
          "name": "",
          "type": "uint256"
        }
      ],
      "stateMutability": "view",
      "type": "function"
    },
    {
      "inputs": [
        {
          "internalType": "address",
          "name": "account",
          "type": "address"
        }
      ],
      "name": "isAdmin",
      "outputs": [
        {
          "internalType": "bool",
          "name": "",
          "type": "bool"
        }
      ],
      "stateMutability": "view",
      "type": "function"
    },
    {
      "inputs": [
        {
          "internalType": "address",
          "name": "",
          "type": "address"
        }
      ],
      "name": "lastFeeUpdate",
      "outputs": [
        {
          "internalType": "uint256",
          "name": "",
          "type": "uint256"
        }
      ],
      "stateMutability": "view",
      "type": "function"
    },
    {
      "inputs": [
        {
          "internalType": "address",
          "name": "user",
          "type": "address"
        },
        {
          "internalType": "uint256",
          "name": "tghsxToRepay",
          "type": "uint256"
        }
      ],
      "name": "liquidateVault",
      "outputs": [],
      "stateMutability": "nonpayable",
      "type": "function"
    },
    {
      "inputs": [],
      "name": "maxSingleDeposit",
      "outputs": [
        {
          "internalType": "uint256",
          "name": "",
          "type": "uint256"
        }
      ],
      "stateMutability": "view",
      "type": "function"
    },
    {
      "inputs": [
        {
          "internalType": "uint256",
          "name": "amount",
          "type": "uint256"
        }
      ],
      "name": "mintTGHSX",
      "outputs": [],
      "stateMutability": "nonpayable",
      "type": "function"
    },
    {
      "inputs": [],
      "name": "owner",
      "outputs": [
        {
          "internalType": "address",
          "name": "",
          "type": "address"
        }
      ],
      "stateMutability": "view",
      "type": "function"
    },
    {
      "inputs": [],
      "name": "paused",
      "outputs": [
        {
          "internalType": "bool",
          "name": "",
          "type": "bool"
        }
      ],
      "stateMutability": "view",
      "type": "function"
    },
    {
      "inputs": [],
      "name": "priceStalenesThreshold",
      "outputs": [
        {
          "internalType": "uint256",
          "name": "",
          "type": "uint256"
        }
      ],
      "stateMutability": "view",
      "type": "function"
    },
    {
      "inputs": [],
      "name": "renounceOwnership",
      "outputs": [],
      "stateMutability": "nonpayable",
      "type": "function"
    },
    {
      "inputs": [],
      "name": "stabilityFeeRate",
      "outputs": [
        {
          "internalType": "uint256",
          "name": "",
          "type": "uint256"
        }
      ],
      "stateMutability": "view",
      "type": "function"
    },
    {
      "inputs": [],
      "name": "tghsxToken",
      "outputs": [
        {
          "internalType": "contract TGHSXToken",
          "name": "",
          "type": "address"
        }
      ],
      "stateMutability": "view",
      "type": "function"
    },
    {
      "inputs": [],
      "name": "totalValueLocked",
      "outputs": [
        {
          "internalType": "uint256",
          "name": "",
          "type": "uint256"
        }
      ],
      "stateMutability": "view",
      "type": "function"
    },
    {
      "inputs": [
        {
          "internalType": "address",
          "name": "newOwner",
          "type": "address"
        }
      ],
      "name": "transferOwnership",
      "outputs": [],
      "stateMutability": "nonpayable",
      "type": "function"
    },
    {
      "inputs": [],
      "name": "treasury",
      "outputs": [
        {
          "internalType": "address",
          "name": "",
          "type": "address"
        }
      ],
      "stateMutability": "view",
      "type": "function"
    },
    {
      "inputs": [
        {
          "internalType": "uint256",
          "name": "_newPrice",
          "type": "uint256"
        }
      ],
      "name": "updateGhsPrice",
      "outputs": [],
      "stateMutability": "nonpayable",
      "type": "function"
    },
    {
      "inputs": [
        {
          "internalType": "uint256",
          "name": "newThreshold",
          "type": "uint256"
        }
      ],
      "name": "updateStalenesThreshold",
      "outputs": [],
      "stateMutability": "nonpayable",
      "type": "function"
    },
    {
      "inputs": [
        {
          "internalType": "address",
          "name": "",
          "type": "address"
        }
      ],
      "name": "userPositions",
      "outputs": [
        {
          "internalType": "uint128",
          "name": "ethCollateral",
          "type": "uint128"
        },
        {
          "internalType": "uint128",
          "name": "tghsxMinted",
          "type": "uint128"
        }
      ],
      "stateMutability": "view",
      "type": "function"
    },
    {
      "inputs": [],
      "name": "vaultConfig",
      "outputs": [
        {
          "internalType": "uint64",
          "name": "minCollateralRatio",
          "type": "uint64"
        },
        {
          "internalType": "uint64",
          "name": "liquidationRatio",
          "type": "uint64"
        },
        {
          "internalType": "uint64",
          "name": "maxCollateralRatio",
          "type": "uint64"
        },
        {
          "internalType": "uint64",
          "name": "lastConfigUpdate",
          "type": "uint64"
        }
      ],
      "stateMutability": "view",
      "type": "function"
    },
    {
      "inputs": [
        {
          "internalType": "uint256",
          "name": "amount",
          "type": "uint256"
        }
      ],
      "name": "withdraw",
      "outputs": [],
      "stateMutability": "nonpayable",
      "type": "function"
    }
  ],
  "bytecode": "0x60e0604052610e106003556000600855683635c9adc5dea00000600b553480156200002957600080fd5b50604051620018e9380380620018e98339810160408190526200004c916200019e565b33806200007357604051631e4fbdf760e01b81526000600482015260240160405180910390fd5b6200007e8162000131565b5060018080556001600160a01b03958616608090815294861660a05292851660c05260078054929095166001600160a01b031990921691909117909355600492909255604080519182018152613a9882526136b060208084019190915261c35083830152426001600160401b03166060909301839052600160c01b90920271c35000000000000036b00000000000003a9817600655336000908152600a9092529020805460ff1916909117905562000205565b600080546001600160a01b038381166001600160a01b0319831681178455604051919092169283917f8be0079c531659141344cd1fd0a4f28419497f9722a3daafe3b4186f6b6457e09190a35050565b80516001600160a01b03811681146200019957600080fd5b919050565b600080600080600060a08688031215620001b757600080fd5b620001c28662000181565b9450620001d26020870162000181565b9350620001e26040870162000181565b9250620001f26060870162000181565b9150608086015190509295509295909350565b60805160a05160c051611691620002586000396000818161051801526108d90152600081816105f6015261084d01526000818161023901528181610b0c01528181610d6e01526111bd01526116916000f3fe6080604052600436106101f95760003560e01c80638a3dfd2b1161010d578063b606b8f2116100a0578063d32867d01161006f578063d32867d014610640578063e4ebddf214610656578063ec18154e14610676578063f2fde38b1461068c578063f33b0705146106ac57600080fd5b8063b606b8f2146105ce578063bcad7af8146105e4578063d00817c114610618578063d0e30db01461063857600080fd5b806391be4d41116100dc57806391be4d411461056f57806395082d251461058a5780639abf98c8146105a2578063b3b8a994146105b857600080fd5b80638a3dfd2b146104e65780638d404e82146105065780638da5cb5b1461053a578063917bc3dc1461055857600080fd5b80635c975abb116101905780636e1cf33c1161015f5780636e1cf33c14610412578063715018a6146104275780637cc34bb41461043c5780637d83cef3146104b05780637f410d06146104c657600080fd5b80635c975abb14610363578063613cf4201461037b57806361d027b3146103dc5780636c4c2d56146103fc57600080fd5b80632657e7ff116101cc5780632657e7ff146102df5780632e1a7d4d1461030f5780633574d4c4146103315780635af4aa1a1461034757600080fd5b806305c67fcb146101fe5780630da2ae521461022757806311cb28291461027357806324d7806c146102a0575b600080fd5b34801561020a57600080fd5b5061021460045481565b6040519081526020015b60405180910390f35b34801561023357600080fd5b5061025b7f000000000000000000000000000000000000000000000000000000000000000081565b6040516001600160a01b03909116815260200161021e565b34801561027f57600080fd5b5061021461028e36600461146a565b60096020526000908152604090205481565b3480156102ac57600080fd5b506102cf6102bb36600461146a565b6000546001600160a01b0391821691161490565b604051901515815260200161021e565b3480156102eb57600080fd5b506102cf6102fa36600461146a565b600a6020526000908152604090205460ff1681565b34801561031b57600080fd5b5061032f61032a36600461148c565b6106cc565b005b34801561033d57600080fd5b506102146101f481565b34801561035357600080fd5b50610214670de0b6b3a764000081565b34801561036f57600080fd5b5060025460ff166102cf565b34801561038757600080fd5b506103bc61039636600461146a565b6005602052600090815260409020546001600160801b0380821691600160801b90041682565b604080516001600160801b0393841681529290911660208301520161021e565b3480156103e857600080fd5b5060075461025b906001600160a01b031681565b34801561040857600080fd5b50610214600b5481565b34801561041e57600080fd5b50610214610846565b34801561043357600080fd5b5061032f610a1b565b34801561044857600080fd5b5060065461047c9067ffffffffffffffff80821691600160401b8104821691600160801b8204811691600160c01b90041684565b6040805167ffffffffffffffff9586168152938516602085015291841691830191909152909116606082015260800161021e565b3480156104bc57600080fd5b5061021460085481565b3480156104d257600080fd5b5061032f6104e136600461148c565b610a2f565b3480156104f257600080fd5b5061032f61050136600461148c565b610bdb565b34801561051257600080fd5b5061025b7f000000000000000000000000000000000000000000000000000000000000000081565b34801561054657600080fd5b506000546001600160a01b031661025b565b34801561056457600080fd5b506102146201518081565b34801561057b57600080fd5b5061021466038d7ea4c6800081565b34801561059657600080fd5b506102146305f5e10081565b3480156105ae57600080fd5b5061021461012c81565b3480156105c457600080fd5b5061021460035481565b3480156105da57600080fd5b5061021461138881565b3480156105f057600080fd5b5061025b7f000000000000000000000000000000000000000000000000000000000000000081565b34801561062457600080fd5b5061032f61063336600461148c565b610c51565b61032f610e0d565b34801561064c57600080fd5b5061021461271081565b34801561066257600080fd5b5061032f61067136600461148c565b610ee1565b34801561068257600080fd5b50610214600c5481565b34801561069857600080fd5b5061032f6106a736600461146a565b610f40565b3480156106b857600080fd5b5061032f6106c73660046114a5565b610f80565b6106d461128d565b6106dc6112b7565b806000036106fd5760405163162908e360e11b815260040160405180910390fd5b33600090815260056020526040902080546001600160801b031682111561073757604051633a23d82560e01b815260040160405180910390fd5b80546000906107509084906001600160801b03166114e5565b8254909150600160801b90046001600160801b0316156107bc57815460009061078a908390600160801b90046001600160801b03166112db565b60065490915067ffffffffffffffff168110156107ba5760405163414db2e160e01b815260040160405180910390fd5b505b81546fffffffffffffffffffffffffffffffff19166001600160801b038216178255600c80548491906000906107f390849061150c565b9091555061080390503384611358565b60405183815233907fc30fcfbcaac9e0deffa719714eaa82396ff506a0d0d0eebe170830177288715d9060200160405180910390a2505061084360018055565b50565b60008060007f00000000000000000000000000000000000000000000000000000000000000006001600160a01b031663feaf968c6040518163ffffffff1660e01b815260040160a060405180830381865afa1580156108a9573d6000803e3d6000fd5b505050506040513d601f19601f820116820180604052508101906108cd9190611539565b509350509250506000807f00000000000000000000000000000000000000000000000000000000000000006001600160a01b031663feaf968c6040518163ffffffff1660e01b815260040160a060405180830381865afa158015610935573d6000803e3d6000fd5b505050506040513d601f19601f820116820180604052508101906109599190611539565b5060035492955093504292506109719050858361150c565b11806109875750600354610985838361150c565b115b156109a5576040516328771d9160e01b815260040160405180910390fd5b6000851315806109b6575060008313155b156109d35760405162bfc92160e01b815260040160405180910390fd5b60006305f5e1006109e48588611589565b6109ee91906115cf565b905060006305f5e10060045483610a0591906115fd565b610a0f9190611614565b98975050505050505050565b610a236113d1565b610a2d60006113fe565b565b610a3761128d565b610a3f6112b7565b80600003610a605760405163162908e360e11b815260040160405180910390fd5b3360009081526005602052604090208054600160801b90046001600160801b0316821115610aa15760405163ac4314a960e01b815260040160405180910390fd5b805482908290601090610ac5908490600160801b90046001600160801b03166114e5565b82546001600160801b039182166101009390930a92830291909202199091161790555060405163079cc67960e41b8152336004820152602481018390526001600160a01b037f000000000000000000000000000000000000000000000000000000000000000016906379cc679090604401600060405180830381600087803b158015610b5057600080fd5b505af1158015610b64573d6000803e3d6000fd5b5050825460009250610b8a91506001600160801b0380821691600160801b9004166112db565b905080336001600160a01b03167fb209e0872ce798ce0c6bf8842822f5fc21173743a5eb59fadc15de136013e64e85604051610bc891815260200190565b60405180910390a3505061084360018055565b610be36113d1565b61012c811080610bf557506201518081115b15610c135760405163aabd5a0960e01b815260040160405180910390fd5b600381905560405181815233907f54cdf0ea49fad6497fa64db31c99cc64a42bca7837ea35ad156832d95ec5f242906020015b60405180910390a250565b610c5961128d565b610c616112b7565b670de0b6b3a7640000811015610c8a5760405163162908e360e11b815260040160405180910390fd5b336000908152600560205260408120805490916001600160801b039091169003610cc757604051633a23d82560e01b815260040160405180910390fd5b8054600090610ce7908490600160801b90046001600160801b0316611628565b8254909150600090610d02906001600160801b0316836112db565b60065490915067ffffffffffffffff16811015610d325760405163414db2e160e01b815260040160405180910390fd5b82546001600160801b03838116600160801b0291161783556040516340c10f1960e01b8152336004820152602481018590526001600160a01b037f000000000000000000000000000000000000000000000000000000000000000016906340c10f1990604401600060405180830381600087803b158015610db257600080fd5b505af1158015610dc6573d6000803e3d6000fd5b50506040518681528392503391507ffe2d0fd52ab7fc1ad80d288ff038a387afef9982c5ec24ab1a0f07e3d9251c4b9060200160405180910390a350505061084360018055565b610e1561128d565b610e1d6112b7565b34600003610e3e5760405163162908e360e11b815260040160405180910390fd5b3360009081526005602052604081208054349290610e669084906001600160801b0316611628565b92506101000a8154816001600160801b0302191690836001600160801b0316021790555034600c6000828254610e9c9190611648565b9091555050604051348152439033907ff4d587c98d234ca4d147061e6b5167e7f41ee17f11562a9f0b49570abece859e9060200160405180910390a3610a2d60018055565b610ee96113d1565b80600003610f095760405162bfc92160e01b815260040160405180910390fd5b600481905560405181815233907f702aa64c1f76aab4c7d770bc8f8a7314f721188b40dc9f5faf97cbf2fcb58e1890602001610c46565b610f486113d1565b6001600160a01b038116610f7757604051631e4fbdf760e01b8152600060048201526024015b60405180910390fd5b610843816113fe565b610f8861128d565b6001600160a01b038216600090815260056020526040812080549091600160801b9091046001600160801b03169003610fd45760405163ac4314a960e01b815260040160405180910390fd5b8054600090610ff6906001600160801b0380821691600160801b9004166112db565b600654909150600160401b900467ffffffffffffffff16811061102c5760405163791b3ae360e01b815260040160405180910390fd5b8154600090612710906110529061138890600160801b90046001600160801b03166115fd565b61105c9190611614565b90508084111561107f5760405163162908e360e11b815260040160405180910390fd5b6000611089610846565b905060008161109c6305f5e100886115fd565b6110a69190611614565b905060006127106110b96101f4846115fd565b6110c39190611614565b905060006110d18284611648565b87549091506001600160801b03168111156110ff57604051633a23d82560e01b815260040160405180910390fd5b86548190889060009061111c9084906001600160801b03166114e5565b92506101000a8154816001600160801b0302191690836001600160801b03160217905550878760000160108282829054906101000a90046001600160801b031661116691906114e5565b92506101000a8154816001600160801b0302191690836001600160801b0316021790555080600c600082825461119c919061150c565b909155505060405163079cc67960e41b8152336004820152602481018990527f00000000000000000000000000000000000000000000000000000000000000006001600160a01b0316906379cc679090604401600060405180830381600087803b15801561120957600080fd5b505af115801561121d573d6000803e3d6000fd5b5050505061122b3382611358565b604080518981526020810185905290810183905233906001600160a01b038b16907f7c5756667bebbcbc3f1e6131bf84d1495438a4e70c03feb204595cc417f5476e9060600160405180910390a35050505050505061128960018055565b5050565b6002600154036112b057604051633ee5aeb560e01b815260040160405180910390fd5b6002600155565b60025460ff1615610a2d5760405163d93c066560e01b815260040160405180910390fd5b6000816001600160801b03166000036112f75750600019611352565b6000611301610846565b90506000670de0b6b3a7640000611321836001600160801b0388166115fd565b61132b9190611614565b90506001600160801b038416611343612710836115fd565b61134d9190611614565b925050505b92915050565b6000826001600160a01b03168260405160006040518083038185875af1925050503d80600081146113a5576040519150601f19603f3d011682016040523d82523d6000602084013e6113aa565b606091505b50509050806113cc576040516312171d8360e31b815260040160405180910390fd5b505050565b6000546001600160a01b03163314610a2d5760405163118cdaa760e01b8152336004820152602401610f6e565b600080546001600160a01b038381166001600160a01b0319831681178455604051919092169283917f8be0079c531659141344cd1fd0a4f28419497f9722a3daafe3b4186f6b6457e09190a35050565b80356001600160a01b038116811461146557600080fd5b919050565b60006020828403121561147c57600080fd5b6114858261144e565b9392505050565b60006020828403121561149e57600080fd5b5035919050565b600080604083850312156114b857600080fd5b6114c18361144e565b946020939093013593505050565b634e487b7160e01b600052601160045260246000fd5b6001600160801b03828116828216039080821115611505576115056114cf565b5092915050565b81810381811115611352576113526114cf565b805169ffffffffffffffffffff8116811461146557600080fd5b600080600080600060a0868803121561155157600080fd5b61155a8661151f565b945060208601519350604086015192506060860151915061157d6080870161151f565b90509295509295909350565b80820260008212600160ff1b841416156115a5576115a56114cf565b8181058314821517611352576113526114cf565b634e487b7160e01b600052601260045260246000fd5b6000826115de576115de6115b9565b600160ff1b8214600019841416156115f8576115f86114cf565b500590565b8082028115828204841417611352576113526114cf565b600082611623576116236115b9565b500490565b6001600160801b03818116838216019080821115611505576115056114cf565b80820180821115611352576113526114cf56fea2646970667358221220d924cdbce5ea26d55ca65d9a9d7fdfc390879cdac494a24ebf1b66940c769a3064736f6c63430008140033",
  "linkReferences": {},
  "deployedLinkReferences": {}
}