{
  "_format": "hh-sol-artifact-1",
  "contractName": "CollateralVault",
  "sourceName": "contracts/CollateralVault.sol",
  "abi": [
    {
      "inputs": [
        {
          "internalType": "address",
          "name": "_tghsxTokenAddress",
          "type": "address"
        },
        {
          "internalType": "address",
          "name": "_ethUsdPriceFeed",
          "type": "address"
        },
        {
          "internalType": "address",
          "name": "_treasury",
          "type": "address"
        },
        {
          "internalType": "uint256",
          "name": "_initialGhsPrice",
          "type": "uint256"
        }
      ],
      "stateMutability": "nonpayable",
      "type": "constructor"
    },
    {
      "inputs": [],
      "name": "EnforcedPause",
      "type": "error"
    },
    {
      "inputs": [],
      "name": "ExpectedPause",
      "type": "error"
    },
    {
      "inputs": [],
      "name": "InsufficientCollateral",
      "type": "error"
    },
    {
      "inputs": [],
      "name": "InsufficientDebt",
      "type": "error"
    },
    {
      "inputs": [],
      "name": "InvalidAddress",
      "type": "error"
    },
    {
      "inputs": [],
      "name": "InvalidAmount",
      "type": "error"
    },
    {
      "inputs": [],
      "name": "InvalidConfiguration",
      "type": "error"
    },
    {
      "inputs": [],
      "name": "InvalidPrice",
      "type": "error"
    },
    {
      "inputs": [
        {
          "internalType": "address",
          "name": "owner",
          "type": "address"
        }
      ],
      "name": "OwnableInvalidOwner",
      "type": "error"
    },
    {
      "inputs": [
        {
          "internalType": "address",
          "name": "account",
          "type": "address"
        }
      ],
      "name": "OwnableUnauthorizedAccount",
      "type": "error"
    },
    {
      "inputs": [],
      "name": "PriceStale",
      "type": "error"
    },
    {
      "inputs": [],
      "name": "ReentrancyGuardReentrantCall",
      "type": "error"
    },
    {
      "inputs": [],
      "name": "TransferFailed",
      "type": "error"
    },
    {
      "inputs": [],
      "name": "UnauthorizedEmergencyAction",
      "type": "error"
    },
    {
      "inputs": [],
      "name": "VaultNotLiquidatable",
      "type": "error"
    },
    {
      "inputs": [],
      "name": "VaultUndercollateralized",
      "type": "error"
    },
    {
      "anonymous": false,
      "inputs": [
        {
          "indexed": true,
          "internalType": "address",
          "name": "user",
          "type": "address"
        },
        {
          "indexed": false,
          "internalType": "uint256",
          "name": "amount",
          "type": "uint256"
        },
        {
          "indexed": true,
          "internalType": "uint256",
          "name": "blockNumber",
          "type": "uint256"
        }
      ],
      "name": "CollateralDeposited",
      "type": "event"
    },
    {
      "anonymous": false,
      "inputs": [
        {
          "indexed": true,
          "internalType": "address",
          "name": "user",
          "type": "address"
        },
        {
          "indexed": false,
          "internalType": "uint256",
          "name": "amount",
          "type": "uint256"
        }
      ],
      "name": "CollateralWithdrawn",
      "type": "event"
    },
    {
      "anonymous": false,
      "inputs": [
        {
          "indexed": false,
          "internalType": "uint256",
          "name": "minRatio",
          "type": "uint256"
        },
        {
          "indexed": false,
          "internalType": "uint256",
          "name": "liquidationRatio",
          "type": "uint256"
        },
        {
          "indexed": false,
          "internalType": "uint256",
          "name": "maxRatio",
          "type": "uint256"
        }
      ],
      "name": "ConfigUpdated",
      "type": "event"
    },
    {
      "anonymous": false,
      "inputs": [
        {
          "indexed": true,
          "internalType": "address",
          "name": "executor",
          "type": "address"
        },
        {
          "indexed": false,
          "internalType": "string",
          "name": "action",
          "type": "string"
        },
        {
          "indexed": true,
          "internalType": "address",
          "name": "target",
          "type": "address"
        }
      ],
      "name": "EmergencyAction",
      "type": "event"
    },
    {
      "anonymous": false,
      "inputs": [
        {
          "indexed": false,
          "internalType": "uint256",
          "name": "newPrice",
          "type": "uint256"
        },
        {
          "indexed": true,
          "internalType": "address",
          "name": "updater",
          "type": "address"
        }
      ],
      "name": "GhsPriceUpdated",
      "type": "event"
    },
    {
      "anonymous": false,
      "inputs": [
        {
          "indexed": true,
          "internalType": "address",
          "name": "previousOwner",
          "type": "address"
        },
        {
          "indexed": true,
          "internalType": "address",
          "name": "newOwner",
          "type": "address"
        }
      ],
      "name": "OwnershipTransferred",
      "type": "event"
    },
    {
      "anonymous": false,
      "inputs": [
        {
          "indexed": false,
          "internalType": "address",
          "name": "account",
          "type": "address"
        }
      ],
      "name": "Paused",
      "type": "event"
    },
    {
      "anonymous": false,
      "inputs": [
        {
          "indexed": false,
          "internalType": "uint256",
          "name": "oldRate",
          "type": "uint256"
        },
        {
          "indexed": false,
          "internalType": "uint256",
          "name": "newRate",
          "type": "uint256"
        }
      ],
      "name": "StabilityFeeUpdated",
      "type": "event"
    },
    {
      "anonymous": false,
      "inputs": [
        {
          "indexed": true,
          "internalType": "address",
          "name": "user",
          "type": "address"
        },
        {
          "indexed": false,
          "internalType": "uint256",
          "name": "amount",
          "type": "uint256"
        },
        {
          "indexed": true,
          "internalType": "uint256",
          "name": "newRatio",
          "type": "uint256"
        }
      ],
      "name": "TGHSXBurned",
      "type": "event"
    },
    {
      "anonymous": false,
      "inputs": [
        {
          "indexed": true,
          "internalType": "address",
          "name": "user",
          "type": "address"
        },
        {
          "indexed": false,
          "internalType": "uint256",
          "name": "amount",
          "type": "uint256"
        },
        {
          "indexed": true,
          "internalType": "uint256",
          "name": "newRatio",
          "type": "uint256"
        }
      ],
      "name": "TGHSXMinted",
      "type": "event"
    },
    {
      "anonymous": false,
      "inputs": [
        {
          "indexed": true,
          "internalType": "address",
          "name": "oldTreasury",
          "type": "address"
        },
        {
          "indexed": true,
          "internalType": "address",
          "name": "newTreasury",
          "type": "address"
        }
      ],
      "name": "TreasuryUpdated",
      "type": "event"
    },
    {
      "anonymous": false,
      "inputs": [
        {
          "indexed": false,
          "internalType": "address",
          "name": "account",
          "type": "address"
        }
      ],
      "name": "Unpaused",
      "type": "event"
    },
    {
      "anonymous": false,
      "inputs": [
        {
          "indexed": true,
          "internalType": "address",
          "name": "user",
          "type": "address"
        },
        {
          "indexed": true,
          "internalType": "address",
          "name": "liquidator",
          "type": "address"
        },
        {
          "indexed": false,
          "internalType": "uint256",
          "name": "repaidTGHSX",
          "type": "uint256"
        },
        {
          "indexed": false,
          "internalType": "uint256",
          "name": "liquidatedETH",
          "type": "uint256"
        },
        {
          "indexed": false,
          "internalType": "uint256",
          "name": "bonus",
          "type": "uint256"
        }
      ],
      "name": "VaultLiquidated",
      "type": "event"
    },
    {
      "inputs": [],
      "name": "LIQUIDATION_BONUS",
      "outputs": [
        {
          "internalType": "uint256",
          "name": "",
          "type": "uint256"
        }
      ],
      "stateMutability": "view",
      "type": "function"
    },
    {
      "inputs": [],
      "name": "MAX_LIQUIDATION_PERCENT",
      "outputs": [
        {
          "internalType": "uint256",
          "name": "",
          "type": "uint256"
        }
      ],
      "stateMutability": "view",
      "type": "function"
    },
    {
      "inputs": [],
      "name": "MIN_COLLATERAL_AMOUNT",
      "outputs": [
        {
          "internalType": "uint256",
          "name": "",
          "type": "uint256"
        }
      ],
      "stateMutability": "view",
      "type": "function"
    },
    {
      "inputs": [],
      "name": "MIN_DEBT_AMOUNT",
      "outputs": [
        {
          "internalType": "uint256",
          "name": "",
          "type": "uint256"
        }
      ],
      "stateMutability": "view",
      "type": "function"
    },
    {
      "inputs": [],
      "name": "PRICE_PRECISION",
      "outputs": [
        {
          "internalType": "uint256",
          "name": "",
          "type": "uint256"
        }
      ],
      "stateMutability": "view",
      "type": "function"
    },
    {
      "inputs": [],
      "name": "PRICE_STALENESS_THRESHOLD",
      "outputs": [
        {
          "internalType": "uint256",
          "name": "",
          "type": "uint256"
        }
      ],
      "stateMutability": "view",
      "type": "function"
    },
    {
      "inputs": [],
      "name": "RATIO_PRECISION",
      "outputs": [
        {
          "internalType": "uint256",
          "name": "",
          "type": "uint256"
        }
      ],
      "stateMutability": "view",
      "type": "function"
    },
    {
      "inputs": [
        {
          "internalType": "uint256",
          "name": "amount",
          "type": "uint256"
        }
      ],
      "name": "burnTGHSX",
      "outputs": [],
      "stateMutability": "nonpayable",
      "type": "function"
    },
    {
      "inputs": [],
      "name": "deposit",
      "outputs": [],
      "stateMutability": "payable",
      "type": "function"
    },
    {
      "inputs": [
        {
          "internalType": "address",
          "name": "",
          "type": "address"
        }
      ],
      "name": "emergencyAuthorized",
      "outputs": [
        {
          "internalType": "bool",
          "name": "",
          "type": "bool"
        }
      ],
      "stateMutability": "view",
      "type": "function"
    },
    {
      "inputs": [],
      "name": "emergencyPause",
      "outputs": [],
      "stateMutability": "nonpayable",
      "type": "function"
    },
    {
      "inputs": [],
      "name": "emergencyUnpause",
      "outputs": [],
      "stateMutability": "nonpayable",
      "type": "function"
    },
    {
      "inputs": [],
      "name": "ethUsdPriceFeed",
      "outputs": [
        {
          "internalType": "contract AggregatorV3Interface",
          "name": "",
          "type": "address"
        }
      ],
      "stateMutability": "view",
      "type": "function"
    },
    {
      "inputs": [
        {
          "internalType": "address",
          "name": "user",
          "type": "address"
        }
      ],
      "name": "getCollateralizationRatio",
      "outputs": [
        {
          "internalType": "uint256",
          "name": "",
          "type": "uint256"
        }
      ],
      "stateMutability": "view",
      "type": "function"
    },
    {
      "inputs": [],
      "name": "getEthGhsPrice",
      "outputs": [
        {
          "internalType": "uint256",
          "name": "",
          "type": "uint256"
        }
      ],
      "stateMutability": "view",
      "type": "function"
    },
    {
      "inputs": [
        {
          "internalType": "address",
          "name": "user",
          "type": "address"
        }
      ],
      "name": "getUserPosition",
      "outputs": [
        {
          "internalType": "uint256",
          "name": "ethCollateral",
          "type": "uint256"
        },
        {
          "internalType": "uint256",
          "name": "tghsxMinted",
          "type": "uint256"
        },
        {
          "internalType": "uint256",
          "name": "collateralizationRatio",
          "type": "uint256"
        }
      ],
      "stateMutability": "view",
      "type": "function"
    },
    {
      "inputs": [],
      "name": "ghsUsdPrice",
      "outputs": [
        {
          "internalType": "uint256",
          "name": "",
          "type": "uint256"
        }
      ],
      "stateMutability": "view",
      "type": "function"
    },
    {
      "inputs": [
        {
          "internalType": "address",
          "name": "",
          "type": "address"
        }
      ],
      "name": "lastFeeUpdate",
      "outputs": [
        {
          "internalType": "uint256",
          "name": "",
          "type": "uint256"
        }
      ],
      "stateMutability": "view",
      "type": "function"
    },
    {
      "inputs": [
        {
          "internalType": "address",
          "name": "user",
          "type": "address"
        },
        {
          "internalType": "uint256",
          "name": "tghsxToRepay",
          "type": "uint256"
        }
      ],
      "name": "liquidateVault",
      "outputs": [],
      "stateMutability": "nonpayable",
      "type": "function"
    },
    {
      "inputs": [],
      "name": "maxSingleDeposit",
      "outputs": [
        {
          "internalType": "uint256",
          "name": "",
          "type": "uint256"
        }
      ],
      "stateMutability": "view",
      "type": "function"
    },
    {
      "inputs": [
        {
          "internalType": "uint256",
          "name": "amount",
          "type": "uint256"
        }
      ],
      "name": "mintTGHSX",
      "outputs": [],
      "stateMutability": "nonpayable",
      "type": "function"
    },
    {
      "inputs": [],
      "name": "owner",
      "outputs": [
        {
          "internalType": "address",
          "name": "",
          "type": "address"
        }
      ],
      "stateMutability": "view",
      "type": "function"
    },
    {
      "inputs": [],
      "name": "paused",
      "outputs": [
        {
          "internalType": "bool",
          "name": "",
          "type": "bool"
        }
      ],
      "stateMutability": "view",
      "type": "function"
    },
    {
      "inputs": [],
      "name": "renounceOwnership",
      "outputs": [],
      "stateMutability": "nonpayable",
      "type": "function"
    },
    {
      "inputs": [
        {
          "internalType": "address",
          "name": "user",
          "type": "address"
        },
        {
          "internalType": "bool",
          "name": "authorized",
          "type": "bool"
        }
      ],
      "name": "setEmergencyAuthorization",
      "outputs": [],
      "stateMutability": "nonpayable",
      "type": "function"
    },
    {
      "inputs": [],
      "name": "stabilityFeeRate",
      "outputs": [
        {
          "internalType": "uint256",
          "name": "",
          "type": "uint256"
        }
      ],
      "stateMutability": "view",
      "type": "function"
    },
    {
      "inputs": [],
      "name": "tghsxToken",
      "outputs": [
        {
          "internalType": "contract TGHSXToken",
          "name": "",
          "type": "address"
        }
      ],
      "stateMutability": "view",
      "type": "function"
    },
    {
      "inputs": [],
      "name": "totalValueLocked",
      "outputs": [
        {
          "internalType": "uint256",
          "name": "",
          "type": "uint256"
        }
      ],
      "stateMutability": "view",
      "type": "function"
    },
    {
      "inputs": [
        {
          "internalType": "address",
          "name": "newOwner",
          "type": "address"
        }
      ],
      "name": "transferOwnership",
      "outputs": [],
      "stateMutability": "nonpayable",
      "type": "function"
    },
    {
      "inputs": [],
      "name": "treasury",
      "outputs": [
        {
          "internalType": "address",
          "name": "",
          "type": "address"
        }
      ],
      "stateMutability": "view",
      "type": "function"
    },
    {
      "inputs": [
        {
          "internalType": "uint256",
          "name": "_newPrice",
          "type": "uint256"
        }
      ],
      "name": "updateGhsPrice",
      "outputs": [],
      "stateMutability": "nonpayable",
      "type": "function"
    },
    {
      "inputs": [
        {
          "internalType": "uint256",
          "name": "newRate",
          "type": "uint256"
        }
      ],
      "name": "updateStabilityFeeRate",
      "outputs": [],
      "stateMutability": "nonpayable",
      "type": "function"
    },
    {
      "inputs": [
        {
          "internalType": "address",
          "name": "newTreasury",
          "type": "address"
        }
      ],
      "name": "updateTreasury",
      "outputs": [],
      "stateMutability": "nonpayable",
      "type": "function"
    },
    {
      "inputs": [
        {
          "internalType": "uint64",
          "name": "newMinRatio",
          "type": "uint64"
        },
        {
          "internalType": "uint64",
          "name": "newLiquidationRatio",
          "type": "uint64"
        },
        {
          "internalType": "uint64",
          "name": "newMaxRatio",
          "type": "uint64"
        }
      ],
      "name": "updateVaultConfig",
      "outputs": [],
      "stateMutability": "nonpayable",
      "type": "function"
    },
    {
      "inputs": [
        {
          "internalType": "address",
          "name": "",
          "type": "address"
        }
      ],
      "name": "userPositions",
      "outputs": [
        {
          "internalType": "uint128",
          "name": "ethCollateral",
          "type": "uint128"
        },
        {
          "internalType": "uint128",
          "name": "tghsxMinted",
          "type": "uint128"
        }
      ],
      "stateMutability": "view",
      "type": "function"
    },
    {
      "inputs": [],
      "name": "vaultConfig",
      "outputs": [
        {
          "internalType": "uint64",
          "name": "minCollateralRatio",
          "type": "uint64"
        },
        {
          "internalType": "uint64",
          "name": "liquidationRatio",
          "type": "uint64"
        },
        {
          "internalType": "uint64",
          "name": "maxCollateralRatio",
          "type": "uint64"
        },
        {
          "internalType": "uint64",
          "name": "lastConfigUpdate",
          "type": "uint64"
        }
      ],
      "stateMutability": "view",
      "type": "function"
    },
    {
      "inputs": [
        {
          "internalType": "uint256",
          "name": "amount",
          "type": "uint256"
        }
      ],
      "name": "withdraw",
      "outputs": [],
      "stateMutability": "nonpayable",
      "type": "function"
    },
    {
      "stateMutability": "payable",
      "type": "receive"
    }
  ],
  "bytecode": "0x60c06040526000600755683635c9adc5dea00000600a553480156200002357600080fd5b5060405162001d0138038062001d01833981016040819052620000469162000192565b33806200006d57604051631e4fbdf760e01b81526000600482015260240160405180910390fd5b620000788162000125565b5060018080556001600160a01b03948516608090815293851660a05260068054939095166001600160a01b031990931692909217909355600392909255604080519182018152613a9882526136b060208084019190915261c35083830152426001600160401b03166060909301839052600160c01b90920271c35000000000000036b00000000000003a981760055533600090815260099092529020805460ff19169091179055620001e4565b600080546001600160a01b038381166001600160a01b0319831681178455604051919092169283917f8be0079c531659141344cd1fd0a4f28419497f9722a3daafe3b4186f6b6457e09190a35050565b80516001600160a01b03811681146200018d57600080fd5b919050565b60008060008060808587031215620001a957600080fd5b620001b48562000175565b9350620001c46020860162000175565b9250620001d46040860162000175565b6060959095015193969295505050565b60805160a051611adb620002266000396000818161036a0152610b3501526000818161027b01528181610d2a01528181611061015261154f0152611adb6000f3fe60806040526004361061021e5760003560e01c80637d83cef311610123578063d00817c1116100ab578063ec18154e1161006f578063ec18154e146106d5578063ed54ff22146106eb578063f25b9caa1461070b578063f2fde38b14610721578063f33b07051461074157600080fd5b8063d00817c114610657578063d0e30db014610677578063d32867d01461067f578063dfb8dd8414610695578063e4ebddf2146106b557600080fd5b806391be4d41116100f257806391be4d41146105ce57806395082d25146105e95780639de964bb14610601578063b606b8f214610621578063bbf860881461063757600080fd5b80637d83cef31461055a5780637f410d06146105705780637f51bb1f146105905780638da5cb5b146105b057600080fd5b80635af4aa1a116101a657806361d027b31161017557806361d027b3146104865780636c4c2d56146104a65780636e1cf33c146104bc578063715018a6146104d15780637cc34bb4146104e657600080fd5b80635af4aa1a146103b65780635b7c2dad146103d25780635c975abb1461040d578063613cf4201461042557600080fd5b80632e1a7d4d116101ed5780632e1a7d4d146103225780633574d4c41461034257806342f6fb29146103585780634a4e3bd51461038c57806351858e27146103a157600080fd5b806305c67fcb146102405780630da2ae521461026957806311cb2829146102b55780632657e7ff146102e257600080fd5b3661023b5761022b610761565b341561023957610239610787565b005b600080fd5b34801561024c57600080fd5b5061025660035481565b6040519081526020015b60405180910390f35b34801561027557600080fd5b5061029d7f000000000000000000000000000000000000000000000000000000000000000081565b6040516001600160a01b039091168152602001610260565b3480156102c157600080fd5b506102566102d036600461188a565b60086020526000908152604090205481565b3480156102ee57600080fd5b506103126102fd36600461188a565b60096020526000908152604090205460ff1681565b6040519015158152602001610260565b34801561032e57600080fd5b5061023961033d3660046118a5565b610862565b34801561034e57600080fd5b506102566101f481565b34801561036457600080fd5b5061029d7f000000000000000000000000000000000000000000000000000000000000000081565b34801561039857600080fd5b506102396109d3565b3480156103ad57600080fd5b50610239610a3b565b3480156103c257600080fd5b50610256670de0b6b3a764000081565b3480156103de57600080fd5b506103f26103ed36600461188a565b610ad8565b60408051938452602084019290925290820152606001610260565b34801561041957600080fd5b5060025460ff16610312565b34801561043157600080fd5b5061046661044036600461188a565b6004602052600090815260409020546001600160801b0380821691600160801b90041682565b604080516001600160801b03938416815292909116602083015201610260565b34801561049257600080fd5b5060065461029d906001600160a01b031681565b3480156104b257600080fd5b50610256600a5481565b3480156104c857600080fd5b50610256610b2e565b3480156104dd57600080fd5b50610239610c3b565b3480156104f257600080fd5b506005546105269067ffffffffffffffff80821691600160401b8104821691600160801b8204811691600160c01b90041684565b6040805167ffffffffffffffff95861681529385166020850152918416918301919091529091166060820152608001610260565b34801561056657600080fd5b5061025660075481565b34801561057c57600080fd5b5061023961058b3660046118a5565b610c4d565b34801561059c57600080fd5b506102396105ab36600461188a565b610df9565b3480156105bc57600080fd5b506000546001600160a01b031661029d565b3480156105da57600080fd5b5061025666038d7ea4c6800081565b3480156105f557600080fd5b506102566305f5e10081565b34801561060d57600080fd5b5061023961061c3660046118be565b610e7a565b34801561062d57600080fd5b5061025661138881565b34801561064357600080fd5b506102396106523660046118a5565b610ed4565b34801561066357600080fd5b506102396106723660046118a5565b610f44565b610239610787565b34801561068b57600080fd5b5061025661271081565b3480156106a157600080fd5b506102396106b0366004611912565b611100565b3480156106c157600080fd5b506102396106d03660046118a5565b611215565b3480156106e157600080fd5b50610256600b5481565b3480156106f757600080fd5b5061025661070636600461188a565b61127a565b34801561071757600080fd5b50610256610e1081565b34801561072d57600080fd5b5061023961073c36600461188a565b6112ce565b34801561074d57600080fd5b5061023961075c366004611955565b61130e565b60025460ff16156107855760405163d93c066560e01b815260040160405180910390fd5b565b61078f61161f565b610797610761565b66038d7ea4c680003410156107bf5760405163162908e360e11b815260040160405180910390fd5b33600090815260046020526040812080543492906107e79084906001600160801b0316611995565b92506101000a8154816001600160801b0302191690836001600160801b0316021790555034600b600082825461081d91906119bc565b9091555050604051348152439033907ff4d587c98d234ca4d147061e6b5167e7f41ee17f11562a9f0b49570abece859e9060200160405180910390a361078560018055565b61086a61161f565b610872610761565b806000036108935760405163162908e360e11b815260040160405180910390fd5b33600090815260046020526040902080546001600160801b03168211156108cd57604051633a23d82560e01b815260040160405180910390fd5b80546000906108e69084906001600160801b03166119cf565b8254909150600160801b90046001600160801b031615610952578154600090610920908390600160801b90046001600160801b0316611649565b60055490915067ffffffffffffffff168110156109505760405163414db2e160e01b815260040160405180910390fd5b505b81546001600160801b0319166001600160801b038216178255600b80548491906000906109809084906119ef565b90915550610990905033846116c6565b60405183815233907fc30fcfbcaac9e0deffa719714eaa82396ff506a0d0d0eebe170830177288715d9060200160405180910390a250506109d060018055565b50565b6109db61173f565b6109e361176c565b604051309033907fcccc7553573aaf3fc6e5ff9f239d58d979fb86f74b846c9b14610befaf96b59f90610a3190602080825260079082015266554e504155534560c81b604082015260600190565b60405180910390a3565b3360009081526009602052604090205460ff16158015610a6657506000546001600160a01b03163314155b15610a8457604051635a222a5760e11b815260040160405180910390fd5b610a8c6117be565b604051309033907fcccc7553573aaf3fc6e5ff9f239d58d979fb86f74b846c9b14610befaf96b59f90610a3190602080825260059082015264504155534560d81b604082015260600190565b6001600160a01b03811660009081526004602090815260408083208151808301909252546001600160801b03808216808452600160801b909204169282018390529290610b258484611649565b93959294505050565b60008060007f00000000000000000000000000000000000000000000000000000000000000006001600160a01b031663feaf968c6040518163ffffffff1660e01b815260040160a060405180830381865afa158015610b91573d6000803e3d6000fd5b505050506040513d601f19601f82011682018060405250810190610bb59190611a1c565b50935050925050610e108142610bcb91906119ef565b1115610bea576040516328771d9160e01b815260040160405180910390fd5b600082131580610bfa5750600354155b15610c175760405162bfc92160e01b815260040160405180910390fd5b6305f5e10060035483610c2a9190611a6c565b610c349190611a83565b9250505090565b610c4361173f565b61078560006117fb565b610c5561161f565b610c5d610761565b80600003610c7e5760405163162908e360e11b815260040160405180910390fd5b3360009081526004602052604090208054600160801b90046001600160801b0316821115610cbf5760405163ac4314a960e01b815260040160405180910390fd5b805482908290601090610ce3908490600160801b90046001600160801b03166119cf565b82546001600160801b039182166101009390930a92830291909202199091161790555060405163079cc67960e41b8152336004820152602481018390526001600160a01b037f000000000000000000000000000000000000000000000000000000000000000016906379cc679090604401600060405180830381600087803b158015610d6e57600080fd5b505af1158015610d82573d6000803e3d6000fd5b5050825460009250610da891506001600160801b0380821691600160801b900416611649565b905080336001600160a01b03167fb209e0872ce798ce0c6bf8842822f5fc21173743a5eb59fadc15de136013e64e85604051610de691815260200190565b60405180910390a350506109d060018055565b610e0161173f565b6001600160a01b038116610e285760405163e6c4247b60e01b815260040160405180910390fd5b600680546001600160a01b038381166001600160a01b0319831681179093556040519116919082907f4ab5be82436d353e61ca18726e984e561f5c1cc7c6d38b29d2553c790434705a90600090a35050565b610e8261173f565b6001600160a01b038216610ea95760405163e6c4247b60e01b815260040160405180910390fd5b6001600160a01b03919091166000908152600960205260409020805460ff1916911515919091179055565b610edc61173f565b6103e8811115610eff5760405163c52a9bd360e01b815260040160405180910390fd5b600780549082905560408051828152602081018490527fde9fa07b6ca9d540214c05366e57cb33adf8f132014d9d1b2802a5b89a99512a910160405180910390a15050565b610f4c61161f565b610f54610761565b670de0b6b3a7640000811015610f7d5760405163162908e360e11b815260040160405180910390fd5b336000908152600460205260408120805490916001600160801b039091169003610fba57604051633a23d82560e01b815260040160405180910390fd5b8054600090610fda908490600160801b90046001600160801b0316611995565b8254909150600090610ff5906001600160801b031683611649565b60055490915067ffffffffffffffff168110156110255760405163414db2e160e01b815260040160405180910390fd5b82546001600160801b03838116600160801b0291161783556040516340c10f1960e01b8152336004820152602481018590526001600160a01b037f000000000000000000000000000000000000000000000000000000000000000016906340c10f1990604401600060405180830381600087803b1580156110a557600080fd5b505af11580156110b9573d6000803e3d6000fd5b50506040518681528392503391507ffe2d0fd52ab7fc1ad80d288ff038a387afef9982c5ec24ab1a0f07e3d9251c4b9060200160405180910390a35050506109d060018055565b61110861173f565b67ffffffffffffffff8216158061113357508167ffffffffffffffff168367ffffffffffffffff1611155b8061115157508067ffffffffffffffff168367ffffffffffffffff16115b1561116f5760405163c52a9bd360e01b815260040160405180910390fd5b600580544267ffffffffffffffff908116600160c01b026001600160c01b03858316600160801b8102919091166001600160801b03888516600160401b81026001600160801b0319909716958b1695861796909617161791909117909355604080519182526020820192909252908101919091527f6d05db271e19f930af71c4765de54ef86294762644c20f4d6fd2609d057d3c7b9060600160405180910390a1505050565b61121d61173f565b8060000361123d5760405162bfc92160e01b815260040160405180910390fd5b600381905560405181815233907f702aa64c1f76aab4c7d770bc8f8a7314f721188b40dc9f5faf97cbf2fcb58e189060200160405180910390a250565b6001600160a01b03811660009081526004602090815260408083208151808301909252546001600160801b03808216808452600160801b9092041692820183905290916112c79190611649565b9392505050565b6112d661173f565b6001600160a01b03811661130557604051631e4fbdf760e01b8152600060048201526024015b60405180910390fd5b6109d0816117fb565b61131661161f565b6001600160a01b038216600090815260046020526040812080549091600160801b9091046001600160801b031690036113625760405163ac4314a960e01b815260040160405180910390fd5b8054600090611384906001600160801b0380821691600160801b900416611649565b600554909150600160401b900467ffffffffffffffff1681106113ba5760405163791b3ae360e01b815260040160405180910390fd5b8154600090612710906113e09061138890600160801b90046001600160801b0316611a6c565b6113ea9190611a83565b90508084111561140d5760405163162908e360e11b815260040160405180910390fd5b6000611417610b2e565b905060008161142e87670de0b6b3a7640000611a6c565b6114389190611a83565b9050600061271061144b6101f484611a6c565b6114559190611a83565b9050600061146382846119bc565b87549091506001600160801b031681111561149157604051633a23d82560e01b815260040160405180910390fd5b8654819088906000906114ae9084906001600160801b03166119cf565b92506101000a8154816001600160801b0302191690836001600160801b03160217905550878760000160108282829054906101000a90046001600160801b03166114f891906119cf565b92506101000a8154816001600160801b0302191690836001600160801b0316021790555080600b600082825461152e91906119ef565b909155505060405163079cc67960e41b8152336004820152602481018990527f00000000000000000000000000000000000000000000000000000000000000006001600160a01b0316906379cc679090604401600060405180830381600087803b15801561159b57600080fd5b505af11580156115af573d6000803e3d6000fd5b505050506115bd33826116c6565b604080518981526020810185905290810183905233906001600160a01b038b16907f7c5756667bebbcbc3f1e6131bf84d1495438a4e70c03feb204595cc417f5476e9060600160405180910390a35050505050505061161b60018055565b5050565b60026001540361164257604051633ee5aeb560e01b815260040160405180910390fd5b6002600155565b6000816001600160801b031660000361166557506000196116c0565b600061166f610b2e565b90506000670de0b6b3a764000061168f836001600160801b038816611a6c565b6116999190611a83565b90506001600160801b0384166116b161271083611a6c565b6116bb9190611a83565b925050505b92915050565b6000826001600160a01b03168260405160006040518083038185875af1925050503d8060008114611713576040519150601f19603f3d011682016040523d82523d6000602084013e611718565b606091505b505090508061173a576040516312171d8360e31b815260040160405180910390fd5b505050565b6000546001600160a01b031633146107855760405163118cdaa760e01b81523360048201526024016112fc565b61177461184b565b6002805460ff191690557f5db9ee0a495bf2e6ff9c91a7834c1ba4fdd244a5e8aa4e537bd38aeae4b073aa335b6040516001600160a01b03909116815260200160405180910390a1565b6117c6610761565b6002805460ff191660011790557f62e78cea01bee320cd4e420270b5ea74000d11b0c9f74754ebdbfc544b05a2586117a13390565b600080546001600160a01b038381166001600160a01b0319831681178455604051919092169283917f8be0079c531659141344cd1fd0a4f28419497f9722a3daafe3b4186f6b6457e09190a35050565b60025460ff1661078557604051638dfc202b60e01b815260040160405180910390fd5b80356001600160a01b038116811461188557600080fd5b919050565b60006020828403121561189c57600080fd5b6112c78261186e565b6000602082840312156118b757600080fd5b5035919050565b600080604083850312156118d157600080fd5b6118da8361186e565b9150602083013580151581146118ef57600080fd5b809150509250929050565b803567ffffffffffffffff8116811461188557600080fd5b60008060006060848603121561192757600080fd5b611930846118fa565b925061193e602085016118fa565b915061194c604085016118fa565b90509250925092565b6000806040838503121561196857600080fd5b6119718361186e565b946020939093013593505050565b634e487b7160e01b600052601160045260246000fd5b6001600160801b038181168382160190808211156119b5576119b561197f565b5092915050565b808201808211156116c0576116c061197f565b6001600160801b038281168282160390808211156119b5576119b561197f565b818103818111156116c0576116c061197f565b805169ffffffffffffffffffff8116811461188557600080fd5b600080600080600060a08688031215611a3457600080fd5b611a3d86611a02565b9450602086015193506040860151925060608601519150611a6060808701611a02565b90509295509295909350565b80820281158282048414176116c0576116c061197f565b600082611aa057634e487b7160e01b600052601260045260246000fd5b50049056fea2646970667358221220bdcb1620088e9353a9c3c3fa961ef6a61aae80cdef98ee280226451336f6b94f64736f6c63430008140033",
  "linkReferences": {},
  "deployedLinkReferences": {}
}