{
  "_format": "hh-sol-artifact-1",
  "contractName": "CollateralVault",
  "sourceName": "contracts/CollateralVault.sol",
  "abi": [
    {
      "inputs": [
        {
          "internalType": "address",
          "name": "_tghsxTokenAddress",
          "type": "address"
        },
        {
          "internalType": "address",
          "name": "_ethBtcPriceFeed",
          "type": "address"
        },
        {
          "internalType": "address",
          "name": "_btcUsdPriceFeed",
          "type": "address"
        },
        {
          "internalType": "address",
          "name": "_treasury",
          "type": "address"
        },
        {
          "internalType": "uint256",
          "name": "_initialGhsPrice",
          "type": "uint256"
        }
      ],
      "stateMutability": "nonpayable",
      "type": "constructor"
    },
    {
      "inputs": [],
      "name": "EnforcedPause",
      "type": "error"
    },
    {
      "inputs": [],
      "name": "ExpectedPause",
      "type": "error"
    },
    {
      "inputs": [],
      "name": "InsufficientCollateral",
      "type": "error"
    },
    {
      "inputs": [],
      "name": "InsufficientDebt",
      "type": "error"
    },
    {
      "inputs": [],
      "name": "InvalidAddress",
      "type": "error"
    },
    {
      "inputs": [],
      "name": "InvalidAmount",
      "type": "error"
    },
    {
      "inputs": [],
      "name": "InvalidPrice",
      "type": "error"
    },
    {
      "inputs": [],
      "name": "InvalidThreshold",
      "type": "error"
    },
    {
      "inputs": [
        {
          "internalType": "address",
          "name": "owner",
          "type": "address"
        }
      ],
      "name": "OwnableInvalidOwner",
      "type": "error"
    },
    {
      "inputs": [
        {
          "internalType": "address",
          "name": "account",
          "type": "address"
        }
      ],
      "name": "OwnableUnauthorizedAccount",
      "type": "error"
    },
    {
      "inputs": [],
      "name": "PriceStale",
      "type": "error"
    },
    {
      "inputs": [],
      "name": "ReentrancyGuardReentrantCall",
      "type": "error"
    },
    {
      "inputs": [],
      "name": "TransferFailed",
      "type": "error"
    },
    {
      "inputs": [],
      "name": "VaultNotLiquidatable",
      "type": "error"
    },
    {
      "inputs": [],
      "name": "VaultUndercollateralized",
      "type": "error"
    },
    {
      "anonymous": false,
      "inputs": [
        {
          "indexed": true,
          "internalType": "address",
          "name": "user",
          "type": "address"
        },
        {
          "indexed": false,
          "internalType": "uint256",
          "name": "amount",
          "type": "uint256"
        },
        {
          "indexed": true,
          "internalType": "uint256",
          "name": "blockNumber",
          "type": "uint256"
        }
      ],
      "name": "CollateralDeposited",
      "type": "event"
    },
    {
      "anonymous": false,
      "inputs": [
        {
          "indexed": true,
          "internalType": "address",
          "name": "user",
          "type": "address"
        },
        {
          "indexed": false,
          "internalType": "uint256",
          "name": "amount",
          "type": "uint256"
        }
      ],
      "name": "CollateralWithdrawn",
      "type": "event"
    },
    {
      "anonymous": false,
      "inputs": [
        {
          "indexed": false,
          "internalType": "uint256",
          "name": "newPrice",
          "type": "uint256"
        },
        {
          "indexed": true,
          "internalType": "address",
          "name": "updater",
          "type": "address"
        }
      ],
      "name": "GhsPriceUpdated",
      "type": "event"
    },
    {
      "anonymous": false,
      "inputs": [
        {
          "indexed": true,
          "internalType": "address",
          "name": "previousOwner",
          "type": "address"
        },
        {
          "indexed": true,
          "internalType": "address",
          "name": "newOwner",
          "type": "address"
        }
      ],
      "name": "OwnershipTransferred",
      "type": "event"
    },
    {
      "anonymous": false,
      "inputs": [
        {
          "indexed": false,
          "internalType": "address",
          "name": "account",
          "type": "address"
        }
      ],
      "name": "Paused",
      "type": "event"
    },
    {
      "anonymous": false,
      "inputs": [
        {
          "indexed": false,
          "internalType": "uint256",
          "name": "newThreshold",
          "type": "uint256"
        },
        {
          "indexed": true,
          "internalType": "address",
          "name": "updater",
          "type": "address"
        }
      ],
      "name": "StalenesThresholdUpdated",
      "type": "event"
    },
    {
      "anonymous": false,
      "inputs": [
        {
          "indexed": true,
          "internalType": "address",
          "name": "user",
          "type": "address"
        },
        {
          "indexed": false,
          "internalType": "uint256",
          "name": "amount",
          "type": "uint256"
        },
        {
          "indexed": true,
          "internalType": "uint256",
          "name": "newRatio",
          "type": "uint256"
        }
      ],
      "name": "TGHSXBurned",
      "type": "event"
    },
    {
      "anonymous": false,
      "inputs": [
        {
          "indexed": true,
          "internalType": "address",
          "name": "user",
          "type": "address"
        },
        {
          "indexed": false,
          "internalType": "uint256",
          "name": "amount",
          "type": "uint256"
        },
        {
          "indexed": true,
          "internalType": "uint256",
          "name": "newRatio",
          "type": "uint256"
        }
      ],
      "name": "TGHSXMinted",
      "type": "event"
    },
    {
      "anonymous": false,
      "inputs": [
        {
          "indexed": false,
          "internalType": "address",
          "name": "account",
          "type": "address"
        }
      ],
      "name": "Unpaused",
      "type": "event"
    },
    {
      "anonymous": false,
      "inputs": [
        {
          "indexed": true,
          "internalType": "address",
          "name": "user",
          "type": "address"
        },
        {
          "indexed": true,
          "internalType": "address",
          "name": "liquidator",
          "type": "address"
        },
        {
          "indexed": false,
          "internalType": "uint256",
          "name": "repaidTGHSX",
          "type": "uint256"
        },
        {
          "indexed": false,
          "internalType": "uint256",
          "name": "liquidatedETH",
          "type": "uint256"
        },
        {
          "indexed": false,
          "internalType": "uint256",
          "name": "bonus",
          "type": "uint256"
        }
      ],
      "name": "VaultLiquidated",
      "type": "event"
    },
    {
      "inputs": [],
      "name": "LIQUIDATION_BONUS",
      "outputs": [
        {
          "internalType": "uint256",
          "name": "",
          "type": "uint256"
        }
      ],
      "stateMutability": "view",
      "type": "function"
    },
    {
      "inputs": [],
      "name": "MAX_LIQUIDATION_PERCENT",
      "outputs": [
        {
          "internalType": "uint256",
          "name": "",
          "type": "uint256"
        }
      ],
      "stateMutability": "view",
      "type": "function"
    },
    {
      "inputs": [],
      "name": "MAX_STALENESS_THRESHOLD",
      "outputs": [
        {
          "internalType": "uint256",
          "name": "",
          "type": "uint256"
        }
      ],
      "stateMutability": "view",
      "type": "function"
    },
    {
      "inputs": [],
      "name": "MIN_COLLATERAL_AMOUNT",
      "outputs": [
        {
          "internalType": "uint256",
          "name": "",
          "type": "uint256"
        }
      ],
      "stateMutability": "view",
      "type": "function"
    },
    {
      "inputs": [],
      "name": "MIN_DEBT_AMOUNT",
      "outputs": [
        {
          "internalType": "uint256",
          "name": "",
          "type": "uint256"
        }
      ],
      "stateMutability": "view",
      "type": "function"
    },
    {
      "inputs": [],
      "name": "MIN_STALENESS_THRESHOLD",
      "outputs": [
        {
          "internalType": "uint256",
          "name": "",
          "type": "uint256"
        }
      ],
      "stateMutability": "view",
      "type": "function"
    },
    {
      "inputs": [],
      "name": "PRICE_PRECISION",
      "outputs": [
        {
          "internalType": "uint256",
          "name": "",
          "type": "uint256"
        }
      ],
      "stateMutability": "view",
      "type": "function"
    },
    {
      "inputs": [],
      "name": "RATIO_PRECISION",
      "outputs": [
        {
          "internalType": "uint256",
          "name": "",
          "type": "uint256"
        }
      ],
      "stateMutability": "view",
      "type": "function"
    },
    {
      "inputs": [],
      "name": "btcUsdPriceFeed",
      "outputs": [
        {
          "internalType": "contract AggregatorV3Interface",
          "name": "",
          "type": "address"
        }
      ],
      "stateMutability": "view",
      "type": "function"
    },
    {
      "inputs": [
        {
          "internalType": "uint256",
          "name": "amount",
          "type": "uint256"
        }
      ],
      "name": "burnTGHSX",
      "outputs": [],
      "stateMutability": "nonpayable",
      "type": "function"
    },
    {
      "inputs": [],
      "name": "deposit",
      "outputs": [],
      "stateMutability": "payable",
      "type": "function"
    },
    {
      "inputs": [
        {
          "internalType": "address",
          "name": "",
          "type": "address"
        }
      ],
      "name": "emergencyAuthorized",
      "outputs": [
        {
          "internalType": "bool",
          "name": "",
          "type": "bool"
        }
      ],
      "stateMutability": "view",
      "type": "function"
    },
    {
      "inputs": [],
      "name": "ethBtcPriceFeed",
      "outputs": [
        {
          "internalType": "contract AggregatorV3Interface",
          "name": "",
          "type": "address"
        }
      ],
      "stateMutability": "view",
      "type": "function"
    },
    {
      "inputs": [],
      "name": "getEthGhsPrice",
      "outputs": [
        {
          "internalType": "uint256",
          "name": "",
          "type": "uint256"
        }
      ],
      "stateMutability": "view",
      "type": "function"
    },
    {
      "inputs": [
        {
          "internalType": "address",
          "name": "user",
          "type": "address"
        }
      ],
      "name": "getUserPosition",
      "outputs": [
        {
          "internalType": "uint256",
          "name": "ethCollateral",
          "type": "uint256"
        },
        {
          "internalType": "uint256",
          "name": "tghsxMinted",
          "type": "uint256"
        },
        {
          "internalType": "uint256",
          "name": "collateralizationRatio",
          "type": "uint256"
        },
        {
          "internalType": "bool",
          "name": "isLiquidatable",
          "type": "bool"
        },
        {
          "internalType": "uint256",
          "name": "accruedFees",
          "type": "uint256"
        }
      ],
      "stateMutability": "view",
      "type": "function"
    },
    {
      "inputs": [],
      "name": "ghsUsdPrice",
      "outputs": [
        {
          "internalType": "uint256",
          "name": "",
          "type": "uint256"
        }
      ],
      "stateMutability": "view",
      "type": "function"
    },
    {
      "inputs": [
        {
          "internalType": "address",
          "name": "account",
          "type": "address"
        }
      ],
      "name": "isAdmin",
      "outputs": [
        {
          "internalType": "bool",
          "name": "",
          "type": "bool"
        }
      ],
      "stateMutability": "view",
      "type": "function"
    },
    {
      "inputs": [
        {
          "internalType": "address",
          "name": "",
          "type": "address"
        }
      ],
      "name": "lastFeeUpdate",
      "outputs": [
        {
          "internalType": "uint256",
          "name": "",
          "type": "uint256"
        }
      ],
      "stateMutability": "view",
      "type": "function"
    },
    {
      "inputs": [
        {
          "internalType": "address",
          "name": "user",
          "type": "address"
        },
        {
          "internalType": "uint256",
          "name": "tghsxToRepay",
          "type": "uint256"
        }
      ],
      "name": "liquidateVault",
      "outputs": [],
      "stateMutability": "nonpayable",
      "type": "function"
    },
    {
      "inputs": [],
      "name": "maxSingleDeposit",
      "outputs": [
        {
          "internalType": "uint256",
          "name": "",
          "type": "uint256"
        }
      ],
      "stateMutability": "view",
      "type": "function"
    },
    {
      "inputs": [
        {
          "internalType": "uint256",
          "name": "amount",
          "type": "uint256"
        }
      ],
      "name": "mintTGHSX",
      "outputs": [],
      "stateMutability": "nonpayable",
      "type": "function"
    },
    {
      "inputs": [],
      "name": "owner",
      "outputs": [
        {
          "internalType": "address",
          "name": "",
          "type": "address"
        }
      ],
      "stateMutability": "view",
      "type": "function"
    },
    {
      "inputs": [],
      "name": "paused",
      "outputs": [
        {
          "internalType": "bool",
          "name": "",
          "type": "bool"
        }
      ],
      "stateMutability": "view",
      "type": "function"
    },
    {
      "inputs": [],
      "name": "priceStalenesThreshold",
      "outputs": [
        {
          "internalType": "uint256",
          "name": "",
          "type": "uint256"
        }
      ],
      "stateMutability": "view",
      "type": "function"
    },
    {
      "inputs": [],
      "name": "renounceOwnership",
      "outputs": [],
      "stateMutability": "nonpayable",
      "type": "function"
    },
    {
      "inputs": [],
      "name": "stabilityFeeRate",
      "outputs": [
        {
          "internalType": "uint256",
          "name": "",
          "type": "uint256"
        }
      ],
      "stateMutability": "view",
      "type": "function"
    },
    {
      "inputs": [],
      "name": "tghsxToken",
      "outputs": [
        {
          "internalType": "contract TGHSXToken",
          "name": "",
          "type": "address"
        }
      ],
      "stateMutability": "view",
      "type": "function"
    },
    {
      "inputs": [],
      "name": "totalValueLocked",
      "outputs": [
        {
          "internalType": "uint256",
          "name": "",
          "type": "uint256"
        }
      ],
      "stateMutability": "view",
      "type": "function"
    },
    {
      "inputs": [
        {
          "internalType": "address",
          "name": "newOwner",
          "type": "address"
        }
      ],
      "name": "transferOwnership",
      "outputs": [],
      "stateMutability": "nonpayable",
      "type": "function"
    },
    {
      "inputs": [],
      "name": "treasury",
      "outputs": [
        {
          "internalType": "address",
          "name": "",
          "type": "address"
        }
      ],
      "stateMutability": "view",
      "type": "function"
    },
    {
      "inputs": [
        {
          "internalType": "uint256",
          "name": "_newPrice",
          "type": "uint256"
        }
      ],
      "name": "updateGhsPrice",
      "outputs": [],
      "stateMutability": "nonpayable",
      "type": "function"
    },
    {
      "inputs": [
        {
          "internalType": "uint256",
          "name": "newThreshold",
          "type": "uint256"
        }
      ],
      "name": "updateStalenesThreshold",
      "outputs": [],
      "stateMutability": "nonpayable",
      "type": "function"
    },
    {
      "inputs": [
        {
          "internalType": "address",
          "name": "",
          "type": "address"
        }
      ],
      "name": "userPositions",
      "outputs": [
        {
          "internalType": "uint128",
          "name": "ethCollateral",
          "type": "uint128"
        },
        {
          "internalType": "uint128",
          "name": "tghsxMinted",
          "type": "uint128"
        }
      ],
      "stateMutability": "view",
      "type": "function"
    },
    {
      "inputs": [],
      "name": "vaultConfig",
      "outputs": [
        {
          "internalType": "uint64",
          "name": "minCollateralRatio",
          "type": "uint64"
        },
        {
          "internalType": "uint64",
          "name": "liquidationRatio",
          "type": "uint64"
        },
        {
          "internalType": "uint64",
          "name": "maxCollateralRatio",
          "type": "uint64"
        },
        {
          "internalType": "uint64",
          "name": "lastConfigUpdate",
          "type": "uint64"
        }
      ],
      "stateMutability": "view",
      "type": "function"
    },
    {
      "inputs": [
        {
          "internalType": "uint256",
          "name": "amount",
          "type": "uint256"
        }
      ],
      "name": "withdraw",
      "outputs": [],
      "stateMutability": "nonpayable",
      "type": "function"
    }
  ],
  "bytecode": "0x60e0604052610e106003556000600855683635c9adc5dea00000600b553480156200002957600080fd5b5060405162001a0a38038062001a0a8339810160408190526200004c916200019e565b33806200007357604051631e4fbdf760e01b81526000600482015260240160405180910390fd5b6200007e8162000131565b5060018080556001600160a01b03958616608090815294861660a05292851660c05260078054929095166001600160a01b031990921691909117909355600492909255604080519182018152613a9882526136b060208084019190915261c35083830152426001600160401b03166060909301839052600160c01b90920271c35000000000000036b00000000000003a9817600655336000908152600a9092529020805460ff1916909117905562000205565b600080546001600160a01b038381166001600160a01b0319831681178455604051919092169283917f8be0079c531659141344cd1fd0a4f28419497f9722a3daafe3b4186f6b6457e09190a35050565b80516001600160a01b03811681146200019957600080fd5b919050565b600080600080600060a08688031215620001b757600080fd5b620001c28662000181565b9450620001d26020870162000181565b9350620001e26040870162000181565b9250620001f26060870162000181565b9150608086015190509295509295909350565b60805160a05160c0516117b2620002586000396000818161056d01526109fa01526000818161064b015261096e01526000818161024401528181610c2d01528181610e8f01526112de01526117b26000f3fe6080604052600436106102045760003560e01c80637f410d0611610118578063b606b8f2116100a0578063d32867d01161006f578063d32867d014610695578063e4ebddf2146106ab578063ec18154e146106cb578063f2fde38b146106e1578063f33b07051461070157600080fd5b8063b606b8f214610623578063bcad7af814610639578063d00817c11461066d578063d0e30db01461068d57600080fd5b8063917bc3dc116100e7578063917bc3dc146105ad57806391be4d41146105c457806395082d25146105df5780639abf98c8146105f7578063b3b8a9941461060d57600080fd5b80637f410d061461051b5780638a3dfd2b1461053b5780638d404e821461055b5780638da5cb5b1461058f57600080fd5b80635b7c2dad1161019b5780636c4c2d561161016a5780636c4c2d56146104515780636e1cf33c14610467578063715018a61461047c5780637cc34bb4146104915780637d83cef31461050557600080fd5b80635b7c2dad1461036e5780635c975abb146103b8578063613cf420146103d057806361d027b31461043157600080fd5b80632657e7ff116101d75780632657e7ff146102ea5780632e1a7d4d1461031a5780633574d4c41461033c5780635af4aa1a1461035257600080fd5b806305c67fcb146102095780630da2ae521461023257806311cb28291461027e57806324d7806c146102ab575b600080fd5b34801561021557600080fd5b5061021f60045481565b6040519081526020015b60405180910390f35b34801561023e57600080fd5b506102667f000000000000000000000000000000000000000000000000000000000000000081565b6040516001600160a01b039091168152602001610229565b34801561028a57600080fd5b5061021f61029936600461158b565b60096020526000908152604090205481565b3480156102b757600080fd5b506102da6102c636600461158b565b6000546001600160a01b0391821691161490565b6040519015158152602001610229565b3480156102f657600080fd5b506102da61030536600461158b565b600a6020526000908152604090205460ff1681565b34801561032657600080fd5b5061033a6103353660046115ad565b610721565b005b34801561034857600080fd5b5061021f6101f481565b34801561035e57600080fd5b5061021f670de0b6b3a764000081565b34801561037a57600080fd5b5061038e61038936600461158b565b61089b565b6040805195865260208601949094529284019190915215156060830152608082015260a001610229565b3480156103c457600080fd5b5060025460ff166102da565b3480156103dc57600080fd5b506104116103eb36600461158b565b6005602052600090815260409020546001600160801b0380821691600160801b90041682565b604080516001600160801b03938416815292909116602083015201610229565b34801561043d57600080fd5b50600754610266906001600160a01b031681565b34801561045d57600080fd5b5061021f600b5481565b34801561047357600080fd5b5061021f610967565b34801561048857600080fd5b5061033a610b3c565b34801561049d57600080fd5b506006546104d19067ffffffffffffffff80821691600160401b8104821691600160801b8204811691600160c01b90041684565b6040805167ffffffffffffffff95861681529385166020850152918416918301919091529091166060820152608001610229565b34801561051157600080fd5b5061021f60085481565b34801561052757600080fd5b5061033a6105363660046115ad565b610b50565b34801561054757600080fd5b5061033a6105563660046115ad565b610cfc565b34801561056757600080fd5b506102667f000000000000000000000000000000000000000000000000000000000000000081565b34801561059b57600080fd5b506000546001600160a01b0316610266565b3480156105b957600080fd5b5061021f6201518081565b3480156105d057600080fd5b5061021f66038d7ea4c6800081565b3480156105eb57600080fd5b5061021f6305f5e10081565b34801561060357600080fd5b5061021f61012c81565b34801561061957600080fd5b5061021f60035481565b34801561062f57600080fd5b5061021f61138881565b34801561064557600080fd5b506102667f000000000000000000000000000000000000000000000000000000000000000081565b34801561067957600080fd5b5061033a6106883660046115ad565b610d72565b61033a610f2e565b3480156106a157600080fd5b5061021f61271081565b3480156106b757600080fd5b5061033a6106c63660046115ad565b611002565b3480156106d757600080fd5b5061021f600c5481565b3480156106ed57600080fd5b5061033a6106fc36600461158b565b611061565b34801561070d57600080fd5b5061033a61071c3660046115c6565b6110a1565b6107296113ae565b6107316113d8565b806000036107525760405163162908e360e11b815260040160405180910390fd5b33600090815260056020526040902080546001600160801b031682111561078c57604051633a23d82560e01b815260040160405180910390fd5b80546000906107a59084906001600160801b0316611606565b8254909150600160801b90046001600160801b0316156108115781546000906107df908390600160801b90046001600160801b03166113fc565b60065490915067ffffffffffffffff1681101561080f5760405163414db2e160e01b815260040160405180910390fd5b505b81546fffffffffffffffffffffffffffffffff19166001600160801b038216178255600c805484919060009061084890849061162d565b9091555061085890503384611479565b60405183815233907fc30fcfbcaac9e0deffa719714eaa82396ff506a0d0d0eebe170830177288715d9060200160405180910390a2505061089860018055565b50565b6001600160a01b03811660009081526005602090815260408083208151808301909252546001600160801b03808216808452600160801b909204169282018390529290819081908482036108f757600019935060009250610959565b6000610901610967565b90506000670de0b6b3a7640000610918838a611640565b610922919061166d565b90508661093161271083611640565b61093b919061166d565b600654909650600160401b900467ffffffffffffffff168610945050505b600091505091939590929450565b60008060007f00000000000000000000000000000000000000000000000000000000000000006001600160a01b031663feaf968c6040518163ffffffff1660e01b815260040160a060405180830381865afa1580156109ca573d6000803e3d6000fd5b505050506040513d601f19601f820116820180604052508101906109ee919061169b565b509350509250506000807f00000000000000000000000000000000000000000000000000000000000000006001600160a01b031663feaf968c6040518163ffffffff1660e01b815260040160a060405180830381865afa158015610a56573d6000803e3d6000fd5b505050506040513d601f19601f82011682018060405250810190610a7a919061169b565b506003549295509350429250610a929050858361162d565b1180610aa85750600354610aa6838361162d565b115b15610ac6576040516328771d9160e01b815260040160405180910390fd5b600085131580610ad7575060008313155b15610af45760405162bfc92160e01b815260040160405180910390fd5b60006305f5e100610b0585886116eb565b610b0f919061171b565b905060006305f5e10060045483610b269190611640565b610b30919061166d565b98975050505050505050565b610b446114f2565b610b4e600061151f565b565b610b586113ae565b610b606113d8565b80600003610b815760405163162908e360e11b815260040160405180910390fd5b3360009081526005602052604090208054600160801b90046001600160801b0316821115610bc25760405163ac4314a960e01b815260040160405180910390fd5b805482908290601090610be6908490600160801b90046001600160801b0316611606565b82546001600160801b039182166101009390930a92830291909202199091161790555060405163079cc67960e41b8152336004820152602481018390526001600160a01b037f000000000000000000000000000000000000000000000000000000000000000016906379cc679090604401600060405180830381600087803b158015610c7157600080fd5b505af1158015610c85573d6000803e3d6000fd5b5050825460009250610cab91506001600160801b0380821691600160801b9004166113fc565b905080336001600160a01b03167fb209e0872ce798ce0c6bf8842822f5fc21173743a5eb59fadc15de136013e64e85604051610ce991815260200190565b60405180910390a3505061089860018055565b610d046114f2565b61012c811080610d1657506201518081115b15610d345760405163aabd5a0960e01b815260040160405180910390fd5b600381905560405181815233907f54cdf0ea49fad6497fa64db31c99cc64a42bca7837ea35ad156832d95ec5f242906020015b60405180910390a250565b610d7a6113ae565b610d826113d8565b670de0b6b3a7640000811015610dab5760405163162908e360e11b815260040160405180910390fd5b336000908152600560205260408120805490916001600160801b039091169003610de857604051633a23d82560e01b815260040160405180910390fd5b8054600090610e08908490600160801b90046001600160801b0316611749565b8254909150600090610e23906001600160801b0316836113fc565b60065490915067ffffffffffffffff16811015610e535760405163414db2e160e01b815260040160405180910390fd5b82546001600160801b03838116600160801b0291161783556040516340c10f1960e01b8152336004820152602481018590526001600160a01b037f000000000000000000000000000000000000000000000000000000000000000016906340c10f1990604401600060405180830381600087803b158015610ed357600080fd5b505af1158015610ee7573d6000803e3d6000fd5b50506040518681528392503391507ffe2d0fd52ab7fc1ad80d288ff038a387afef9982c5ec24ab1a0f07e3d9251c4b9060200160405180910390a350505061089860018055565b610f366113ae565b610f3e6113d8565b34600003610f5f5760405163162908e360e11b815260040160405180910390fd5b3360009081526005602052604081208054349290610f879084906001600160801b0316611749565b92506101000a8154816001600160801b0302191690836001600160801b0316021790555034600c6000828254610fbd9190611769565b9091555050604051348152439033907ff4d587c98d234ca4d147061e6b5167e7f41ee17f11562a9f0b49570abece859e9060200160405180910390a3610b4e60018055565b61100a6114f2565b8060000361102a5760405162bfc92160e01b815260040160405180910390fd5b600481905560405181815233907f702aa64c1f76aab4c7d770bc8f8a7314f721188b40dc9f5faf97cbf2fcb58e1890602001610d67565b6110696114f2565b6001600160a01b03811661109857604051631e4fbdf760e01b8152600060048201526024015b60405180910390fd5b6108988161151f565b6110a96113ae565b6001600160a01b038216600090815260056020526040812080549091600160801b9091046001600160801b031690036110f55760405163ac4314a960e01b815260040160405180910390fd5b8054600090611117906001600160801b0380821691600160801b9004166113fc565b600654909150600160401b900467ffffffffffffffff16811061114d5760405163791b3ae360e01b815260040160405180910390fd5b8154600090612710906111739061138890600160801b90046001600160801b0316611640565b61117d919061166d565b9050808411156111a05760405163162908e360e11b815260040160405180910390fd5b60006111aa610967565b90506000816111bd6305f5e10088611640565b6111c7919061166d565b905060006127106111da6101f484611640565b6111e4919061166d565b905060006111f28284611769565b87549091506001600160801b031681111561122057604051633a23d82560e01b815260040160405180910390fd5b86548190889060009061123d9084906001600160801b0316611606565b92506101000a8154816001600160801b0302191690836001600160801b03160217905550878760000160108282829054906101000a90046001600160801b03166112879190611606565b92506101000a8154816001600160801b0302191690836001600160801b0316021790555080600c60008282546112bd919061162d565b909155505060405163079cc67960e41b8152336004820152602481018990527f00000000000000000000000000000000000000000000000000000000000000006001600160a01b0316906379cc679090604401600060405180830381600087803b15801561132a57600080fd5b505af115801561133e573d6000803e3d6000fd5b5050505061134c3382611479565b604080518981526020810185905290810183905233906001600160a01b038b16907f7c5756667bebbcbc3f1e6131bf84d1495438a4e70c03feb204595cc417f5476e9060600160405180910390a3505050505050506113aa60018055565b5050565b6002600154036113d157604051633ee5aeb560e01b815260040160405180910390fd5b6002600155565b60025460ff1615610b4e5760405163d93c066560e01b815260040160405180910390fd5b6000816001600160801b03166000036114185750600019611473565b6000611422610967565b90506000670de0b6b3a7640000611442836001600160801b038816611640565b61144c919061166d565b90506001600160801b03841661146461271083611640565b61146e919061166d565b925050505b92915050565b6000826001600160a01b03168260405160006040518083038185875af1925050503d80600081146114c6576040519150601f19603f3d011682016040523d82523d6000602084013e6114cb565b606091505b50509050806114ed576040516312171d8360e31b815260040160405180910390fd5b505050565b6000546001600160a01b03163314610b4e5760405163118cdaa760e01b815233600482015260240161108f565b600080546001600160a01b038381166001600160a01b0319831681178455604051919092169283917f8be0079c531659141344cd1fd0a4f28419497f9722a3daafe3b4186f6b6457e09190a35050565b80356001600160a01b038116811461158657600080fd5b919050565b60006020828403121561159d57600080fd5b6115a68261156f565b9392505050565b6000602082840312156115bf57600080fd5b5035919050565b600080604083850312156115d957600080fd5b6115e28361156f565b946020939093013593505050565b634e487b7160e01b600052601160045260246000fd5b6001600160801b03828116828216039080821115611626576116266115f0565b5092915050565b81810381811115611473576114736115f0565b8082028115828204841417611473576114736115f0565b634e487b7160e01b600052601260045260246000fd5b60008261167c5761167c611657565b500490565b805169ffffffffffffffffffff8116811461158657600080fd5b600080600080600060a086880312156116b357600080fd5b6116bc86611681565b94506020860151935060408601519250606086015191506116df60808701611681565b90509295509295909350565b80820260008212600160ff1b84141615611707576117076115f0565b8181058314821517611473576114736115f0565b60008261172a5761172a611657565b600160ff1b821460001984141615611744576117446115f0565b500590565b6001600160801b03818116838216019080821115611626576116266115f0565b80820180821115611473576114736115f056fea2646970667358221220256bf655282e7679ca9fbca305a9852c284c1a3a246c6b1e416a76d230179f4f64736f6c63430008140033",
  "linkReferences": {},
  "deployedLinkReferences": {}
}