{
  "_format": "hh-sol-artifact-1",
  "contractName": "CollateralVault",
  "sourceName": "contracts/CollateralVault.sol",
  "abi": [
    {
      "inputs": [
        {
          "internalType": "address",
          "name": "_tghsxTokenAddress",
          "type": "address"
        },
        {
          "internalType": "address",
          "name": "_ethBtcPriceFeed",
          "type": "address"
        },
        {
          "internalType": "address",
          "name": "_btcUsdPriceFeed",
          "type": "address"
        },
        {
          "internalType": "address",
          "name": "_treasury",
          "type": "address"
        },
        {
          "internalType": "uint256",
          "name": "_initialGhsPrice",
          "type": "uint256"
        }
      ],
      "stateMutability": "nonpayable",
      "type": "constructor"
    },
    {
      "inputs": [],
      "name": "EnforcedPause",
      "type": "error"
    },
    {
      "inputs": [],
      "name": "ExpectedPause",
      "type": "error"
    },
    {
      "inputs": [],
      "name": "InsufficientCollateral",
      "type": "error"
    },
    {
      "inputs": [],
      "name": "InsufficientDebt",
      "type": "error"
    },
    {
      "inputs": [],
      "name": "InvalidAddress",
      "type": "error"
    },
    {
      "inputs": [],
      "name": "InvalidAmount",
      "type": "error"
    },
    {
      "inputs": [],
      "name": "InvalidPrice",
      "type": "error"
    },
    {
      "inputs": [],
      "name": "InvalidThreshold",
      "type": "error"
    },
    {
      "inputs": [
        {
          "internalType": "address",
          "name": "owner",
          "type": "address"
        }
      ],
      "name": "OwnableInvalidOwner",
      "type": "error"
    },
    {
      "inputs": [
        {
          "internalType": "address",
          "name": "account",
          "type": "address"
        }
      ],
      "name": "OwnableUnauthorizedAccount",
      "type": "error"
    },
    {
      "inputs": [],
      "name": "PriceStale",
      "type": "error"
    },
    {
      "inputs": [],
      "name": "ReentrancyGuardReentrantCall",
      "type": "error"
    },
    {
      "inputs": [],
      "name": "TransferFailed",
      "type": "error"
    },
    {
      "inputs": [],
      "name": "VaultNotLiquidatable",
      "type": "error"
    },
    {
      "inputs": [],
      "name": "VaultUndercollateralized",
      "type": "error"
    },
    {
      "anonymous": false,
      "inputs": [
        {
          "indexed": true,
          "internalType": "address",
          "name": "user",
          "type": "address"
        },
        {
          "indexed": false,
          "internalType": "uint256",
          "name": "amount",
          "type": "uint256"
        },
        {
          "indexed": true,
          "internalType": "uint256",
          "name": "blockNumber",
          "type": "uint256"
        }
      ],
      "name": "CollateralDeposited",
      "type": "event"
    },
    {
      "anonymous": false,
      "inputs": [
        {
          "indexed": true,
          "internalType": "address",
          "name": "user",
          "type": "address"
        },
        {
          "indexed": false,
          "internalType": "uint256",
          "name": "amount",
          "type": "uint256"
        }
      ],
      "name": "CollateralWithdrawn",
      "type": "event"
    },
    {
      "anonymous": false,
      "inputs": [
        {
          "indexed": false,
          "internalType": "uint256",
          "name": "newPrice",
          "type": "uint256"
        },
        {
          "indexed": true,
          "internalType": "address",
          "name": "updater",
          "type": "address"
        }
      ],
      "name": "GhsPriceUpdated",
      "type": "event"
    },
    {
      "anonymous": false,
      "inputs": [
        {
          "indexed": true,
          "internalType": "address",
          "name": "previousOwner",
          "type": "address"
        },
        {
          "indexed": true,
          "internalType": "address",
          "name": "newOwner",
          "type": "address"
        }
      ],
      "name": "OwnershipTransferred",
      "type": "event"
    },
    {
      "anonymous": false,
      "inputs": [
        {
          "indexed": false,
          "internalType": "address",
          "name": "account",
          "type": "address"
        }
      ],
      "name": "Paused",
      "type": "event"
    },
    {
      "anonymous": false,
      "inputs": [
        {
          "indexed": false,
          "internalType": "uint256",
          "name": "newThreshold",
          "type": "uint256"
        },
        {
          "indexed": true,
          "internalType": "address",
          "name": "updater",
          "type": "address"
        }
      ],
      "name": "StalenesThresholdUpdated",
      "type": "event"
    },
    {
      "anonymous": false,
      "inputs": [
        {
          "indexed": true,
          "internalType": "address",
          "name": "user",
          "type": "address"
        },
        {
          "indexed": false,
          "internalType": "uint256",
          "name": "amount",
          "type": "uint256"
        },
        {
          "indexed": true,
          "internalType": "uint256",
          "name": "newRatio",
          "type": "uint256"
        }
      ],
      "name": "TGHSXBurned",
      "type": "event"
    },
    {
      "anonymous": false,
      "inputs": [
        {
          "indexed": true,
          "internalType": "address",
          "name": "user",
          "type": "address"
        },
        {
          "indexed": false,
          "internalType": "uint256",
          "name": "amount",
          "type": "uint256"
        },
        {
          "indexed": true,
          "internalType": "uint256",
          "name": "newRatio",
          "type": "uint256"
        }
      ],
      "name": "TGHSXMinted",
      "type": "event"
    },
    {
      "anonymous": false,
      "inputs": [
        {
          "indexed": false,
          "internalType": "address",
          "name": "account",
          "type": "address"
        }
      ],
      "name": "Unpaused",
      "type": "event"
    },
    {
      "anonymous": false,
      "inputs": [
        {
          "indexed": true,
          "internalType": "address",
          "name": "user",
          "type": "address"
        },
        {
          "indexed": true,
          "internalType": "address",
          "name": "liquidator",
          "type": "address"
        },
        {
          "indexed": false,
          "internalType": "uint256",
          "name": "repaidTGHSX",
          "type": "uint256"
        },
        {
          "indexed": false,
          "internalType": "uint256",
          "name": "liquidatedETH",
          "type": "uint256"
        },
        {
          "indexed": false,
          "internalType": "uint256",
          "name": "bonus",
          "type": "uint256"
        }
      ],
      "name": "VaultLiquidated",
      "type": "event"
    },
    {
      "inputs": [],
      "name": "LIQUIDATION_BONUS",
      "outputs": [
        {
          "internalType": "uint256",
          "name": "",
          "type": "uint256"
        }
      ],
      "stateMutability": "view",
      "type": "function"
    },
    {
      "inputs": [],
      "name": "MAX_LIQUIDATION_PERCENT",
      "outputs": [
        {
          "internalType": "uint256",
          "name": "",
          "type": "uint256"
        }
      ],
      "stateMutability": "view",
      "type": "function"
    },
    {
      "inputs": [],
      "name": "MAX_STALENESS_THRESHOLD",
      "outputs": [
        {
          "internalType": "uint256",
          "name": "",
          "type": "uint256"
        }
      ],
      "stateMutability": "view",
      "type": "function"
    },
    {
      "inputs": [],
      "name": "MIN_COLLATERAL_AMOUNT",
      "outputs": [
        {
          "internalType": "uint256",
          "name": "",
          "type": "uint256"
        }
      ],
      "stateMutability": "view",
      "type": "function"
    },
    {
      "inputs": [],
      "name": "MIN_DEBT_AMOUNT",
      "outputs": [
        {
          "internalType": "uint256",
          "name": "",
          "type": "uint256"
        }
      ],
      "stateMutability": "view",
      "type": "function"
    },
    {
      "inputs": [],
      "name": "MIN_STALENESS_THRESHOLD",
      "outputs": [
        {
          "internalType": "uint256",
          "name": "",
          "type": "uint256"
        }
      ],
      "stateMutability": "view",
      "type": "function"
    },
    {
      "inputs": [],
      "name": "PRICE_PRECISION",
      "outputs": [
        {
          "internalType": "uint256",
          "name": "",
          "type": "uint256"
        }
      ],
      "stateMutability": "view",
      "type": "function"
    },
    {
      "inputs": [],
      "name": "RATIO_PRECISION",
      "outputs": [
        {
          "internalType": "uint256",
          "name": "",
          "type": "uint256"
        }
      ],
      "stateMutability": "view",
      "type": "function"
    },
    {
      "inputs": [],
      "name": "btcUsdPriceFeed",
      "outputs": [
        {
          "internalType": "contract AggregatorV3Interface",
          "name": "",
          "type": "address"
        }
      ],
      "stateMutability": "view",
      "type": "function"
    },
    {
      "inputs": [
        {
          "internalType": "uint256",
          "name": "amount",
          "type": "uint256"
        }
      ],
      "name": "burnTGHSX",
      "outputs": [],
      "stateMutability": "nonpayable",
      "type": "function"
    },
    {
      "inputs": [],
      "name": "deposit",
      "outputs": [],
      "stateMutability": "payable",
      "type": "function"
    },
    {
      "inputs": [
        {
          "internalType": "uint256",
          "name": "mintAmount",
          "type": "uint256"
        }
      ],
      "name": "depositAndMint",
      "outputs": [],
      "stateMutability": "payable",
      "type": "function"
    },
    {
      "inputs": [
        {
          "internalType": "address",
          "name": "",
          "type": "address"
        }
      ],
      "name": "emergencyAuthorized",
      "outputs": [
        {
          "internalType": "bool",
          "name": "",
          "type": "bool"
        }
      ],
      "stateMutability": "view",
      "type": "function"
    },
    {
      "inputs": [],
      "name": "ethBtcPriceFeed",
      "outputs": [
        {
          "internalType": "contract AggregatorV3Interface",
          "name": "",
          "type": "address"
        }
      ],
      "stateMutability": "view",
      "type": "function"
    },
    {
      "inputs": [],
      "name": "getEthGhsPrice",
      "outputs": [
        {
          "internalType": "uint256",
          "name": "",
          "type": "uint256"
        }
      ],
      "stateMutability": "view",
      "type": "function"
    },
    {
      "inputs": [
        {
          "internalType": "address",
          "name": "user",
          "type": "address"
        }
      ],
      "name": "getUserPosition",
      "outputs": [
        {
          "internalType": "uint256",
          "name": "",
          "type": "uint256"
        },
        {
          "internalType": "uint256",
          "name": "",
          "type": "uint256"
        },
        {
          "internalType": "uint256",
          "name": "",
          "type": "uint256"
        },
        {
          "internalType": "bool",
          "name": "",
          "type": "bool"
        },
        {
          "internalType": "uint256",
          "name": "",
          "type": "uint256"
        }
      ],
      "stateMutability": "view",
      "type": "function"
    },
    {
      "inputs": [],
      "name": "ghsUsdPrice",
      "outputs": [
        {
          "internalType": "uint256",
          "name": "",
          "type": "uint256"
        }
      ],
      "stateMutability": "view",
      "type": "function"
    },
    {
      "inputs": [
        {
          "internalType": "address",
          "name": "account",
          "type": "address"
        }
      ],
      "name": "isAdmin",
      "outputs": [
        {
          "internalType": "bool",
          "name": "",
          "type": "bool"
        }
      ],
      "stateMutability": "view",
      "type": "function"
    },
    {
      "inputs": [
        {
          "internalType": "address",
          "name": "",
          "type": "address"
        }
      ],
      "name": "lastFeeUpdate",
      "outputs": [
        {
          "internalType": "uint256",
          "name": "",
          "type": "uint256"
        }
      ],
      "stateMutability": "view",
      "type": "function"
    },
    {
      "inputs": [
        {
          "internalType": "address",
          "name": "user",
          "type": "address"
        },
        {
          "internalType": "uint256",
          "name": "tghsxToRepay",
          "type": "uint256"
        }
      ],
      "name": "liquidateVault",
      "outputs": [],
      "stateMutability": "nonpayable",
      "type": "function"
    },
    {
      "inputs": [],
      "name": "maxSingleDeposit",
      "outputs": [
        {
          "internalType": "uint256",
          "name": "",
          "type": "uint256"
        }
      ],
      "stateMutability": "view",
      "type": "function"
    },
    {
      "inputs": [
        {
          "internalType": "uint256",
          "name": "amount",
          "type": "uint256"
        }
      ],
      "name": "mintTGHSX",
      "outputs": [],
      "stateMutability": "nonpayable",
      "type": "function"
    },
    {
      "inputs": [],
      "name": "owner",
      "outputs": [
        {
          "internalType": "address",
          "name": "",
          "type": "address"
        }
      ],
      "stateMutability": "view",
      "type": "function"
    },
    {
      "inputs": [],
      "name": "paused",
      "outputs": [
        {
          "internalType": "bool",
          "name": "",
          "type": "bool"
        }
      ],
      "stateMutability": "view",
      "type": "function"
    },
    {
      "inputs": [],
      "name": "priceStalenesThreshold",
      "outputs": [
        {
          "internalType": "uint256",
          "name": "",
          "type": "uint256"
        }
      ],
      "stateMutability": "view",
      "type": "function"
    },
    {
      "inputs": [],
      "name": "renounceOwnership",
      "outputs": [],
      "stateMutability": "nonpayable",
      "type": "function"
    },
    {
      "inputs": [
        {
          "internalType": "uint256",
          "name": "burnAmount",
          "type": "uint256"
        },
        {
          "internalType": "uint256",
          "name": "withdrawAmount",
          "type": "uint256"
        }
      ],
      "name": "repayAndWithdraw",
      "outputs": [],
      "stateMutability": "nonpayable",
      "type": "function"
    },
    {
      "inputs": [],
      "name": "stabilityFeeRate",
      "outputs": [
        {
          "internalType": "uint256",
          "name": "",
          "type": "uint256"
        }
      ],
      "stateMutability": "view",
      "type": "function"
    },
    {
      "inputs": [],
      "name": "tghsxToken",
      "outputs": [
        {
          "internalType": "contract TGHSXToken",
          "name": "",
          "type": "address"
        }
      ],
      "stateMutability": "view",
      "type": "function"
    },
    {
      "inputs": [],
      "name": "totalValueLocked",
      "outputs": [
        {
          "internalType": "uint256",
          "name": "",
          "type": "uint256"
        }
      ],
      "stateMutability": "view",
      "type": "function"
    },
    {
      "inputs": [
        {
          "internalType": "address",
          "name": "newOwner",
          "type": "address"
        }
      ],
      "name": "transferOwnership",
      "outputs": [],
      "stateMutability": "nonpayable",
      "type": "function"
    },
    {
      "inputs": [],
      "name": "treasury",
      "outputs": [
        {
          "internalType": "address",
          "name": "",
          "type": "address"
        }
      ],
      "stateMutability": "view",
      "type": "function"
    },
    {
      "inputs": [
        {
          "internalType": "uint256",
          "name": "_newPrice",
          "type": "uint256"
        }
      ],
      "name": "updateGhsPrice",
      "outputs": [],
      "stateMutability": "nonpayable",
      "type": "function"
    },
    {
      "inputs": [
        {
          "internalType": "uint256",
          "name": "newThreshold",
          "type": "uint256"
        }
      ],
      "name": "updateStalenesThreshold",
      "outputs": [],
      "stateMutability": "nonpayable",
      "type": "function"
    },
    {
      "inputs": [
        {
          "internalType": "address",
          "name": "",
          "type": "address"
        }
      ],
      "name": "userPositions",
      "outputs": [
        {
          "internalType": "uint128",
          "name": "ethCollateral",
          "type": "uint128"
        },
        {
          "internalType": "uint128",
          "name": "tghsxMinted",
          "type": "uint128"
        }
      ],
      "stateMutability": "view",
      "type": "function"
    },
    {
      "inputs": [],
      "name": "vaultConfig",
      "outputs": [
        {
          "internalType": "uint64",
          "name": "minCollateralRatio",
          "type": "uint64"
        },
        {
          "internalType": "uint64",
          "name": "liquidationRatio",
          "type": "uint64"
        },
        {
          "internalType": "uint64",
          "name": "maxCollateralRatio",
          "type": "uint64"
        },
        {
          "internalType": "uint64",
          "name": "lastConfigUpdate",
          "type": "uint64"
        }
      ],
      "stateMutability": "view",
      "type": "function"
    },
    {
      "inputs": [
        {
          "internalType": "uint256",
          "name": "amount",
          "type": "uint256"
        }
      ],
      "name": "withdraw",
      "outputs": [],
      "stateMutability": "nonpayable",
      "type": "function"
    }
  ],
  "bytecode": "0x60e0604052610e106003556000600855683635c9adc5dea00000600b553480156200002957600080fd5b5060405162001e1738038062001e178339810160408190526200004c916200019e565b33806200007357604051631e4fbdf760e01b81526000600482015260240160405180910390fd5b6200007e8162000131565b5060018080556001600160a01b03958616608090815294861660a05292851660c05260078054929095166001600160a01b031990921691909117909355600492909255604080519182018152613a9882526136b060208084019190915261c35083830152426001600160401b03166060909301839052600160c01b90920271c35000000000000036b00000000000003a9817600655336000908152600a9092529020805460ff1916909117905562000205565b600080546001600160a01b038381166001600160a01b0319831681178455604051919092169283917f8be0079c531659141344cd1fd0a4f28419497f9722a3daafe3b4186f6b6457e09190a35050565b80516001600160a01b03811681146200019957600080fd5b919050565b600080600080600060a08688031215620001b757600080fd5b620001c28662000181565b9450620001d26020870162000181565b9350620001e26040870162000181565b9250620001f26060870162000181565b9150608086015190509295509295909350565b60805160a05160c051611bb86200025f600039600081816105960152610ca70152600081816106740152610c1b01526000818161025a01528181610a9f01528181610ed70152818161124a01526116c60152611bb86000f3fe60806040526004361061021a5760003560e01c80637f410d0611610123578063b606b8f2116100ab578063e4ebddf21161006f578063e4ebddf2146106d4578063ebc9b94d146106f4578063ec18154e14610714578063f2fde38b1461072a578063f33b07051461074a57600080fd5b8063b606b8f21461064c578063bcad7af814610662578063d00817c114610696578063d0e30db0146106b6578063d32867d0146106be57600080fd5b8063917bc3dc116100f2578063917bc3dc146105d657806391be4d41146105ed57806395082d25146106085780639abf98c814610620578063b3b8a9941461063657600080fd5b80637f410d06146105445780638a3dfd2b146105645780638d404e82146105845780638da5cb5b146105b857600080fd5b80635b7c2dad116101a65780636c4c2d56116101755780636c4c2d561461047a5780636e1cf33c14610490578063715018a6146104a55780637cc34bb4146104ba5780637d83cef31461052e57600080fd5b80635b7c2dad146103975780635c975abb146103e1578063613cf420146103f957806361d027b31461045a57600080fd5b80632657e7ff116101ed5780632657e7ff146103005780632e1a7d4d146103305780633574d4c41461035257806345fd0465146103685780635af4aa1a1461037b57600080fd5b806305c67fcb1461021f5780630da2ae521461024857806311cb28291461029457806324d7806c146102c1575b600080fd5b34801561022b57600080fd5b5061023560045481565b6040519081526020015b60405180910390f35b34801561025457600080fd5b5061027c7f000000000000000000000000000000000000000000000000000000000000000081565b6040516001600160a01b03909116815260200161023f565b3480156102a057600080fd5b506102356102af36600461196f565b60096020526000908152604090205481565b3480156102cd57600080fd5b506102f06102dc36600461196f565b6000546001600160a01b0391821691161490565b604051901515815260200161023f565b34801561030c57600080fd5b506102f061031b36600461196f565b600a6020526000908152604090205460ff1681565b34801561033c57600080fd5b5061035061034b366004611991565b61076a565b005b34801561035e57600080fd5b506102356101f481565b610350610376366004611991565b6108db565b34801561038757600080fd5b50610235670de0b6b3a764000081565b3480156103a357600080fd5b506103b76103b236600461196f565b610b3f565b6040805195865260208601949094529284019190915215156060830152608082015260a00161023f565b3480156103ed57600080fd5b5060025460ff166102f0565b34801561040557600080fd5b5061043a61041436600461196f565b6005602052600090815260409020546001600160801b0380821691600160801b90041682565b604080516001600160801b0393841681529290911660208301520161023f565b34801561046657600080fd5b5060075461027c906001600160a01b031681565b34801561048657600080fd5b50610235600b5481565b34801561049c57600080fd5b50610235610c14565b3480156104b157600080fd5b50610350610de6565b3480156104c657600080fd5b506006546104fa9067ffffffffffffffff80821691600160401b8104821691600160801b8204811691600160c01b90041684565b6040805167ffffffffffffffff9586168152938516602085015291841691830191909152909116606082015260800161023f565b34801561053a57600080fd5b5061023560085481565b34801561055057600080fd5b5061035061055f366004611991565b610dfa565b34801561057057600080fd5b5061035061057f366004611991565b610fa6565b34801561059057600080fd5b5061027c7f000000000000000000000000000000000000000000000000000000000000000081565b3480156105c457600080fd5b506000546001600160a01b031661027c565b3480156105e257600080fd5b506102356201518081565b3480156105f957600080fd5b5061023566038d7ea4c6800081565b34801561061457600080fd5b506102356305f5e10081565b34801561062c57600080fd5b5061023561012c81565b34801561064257600080fd5b5061023560035481565b34801561065857600080fd5b5061023561138881565b34801561066e57600080fd5b5061027c7f000000000000000000000000000000000000000000000000000000000000000081565b3480156106a257600080fd5b506103506106b1366004611991565b61101c565b610350611055565b3480156106ca57600080fd5b5061023561271081565b3480156106e057600080fd5b506103506106ef366004611991565b611129565b34801561070057600080fd5b5061035061070f3660046119aa565b611188565b34801561072057600080fd5b50610235600c5481565b34801561073657600080fd5b5061035061074536600461196f565b611449565b34801561075657600080fd5b506103506107653660046119cc565b611489565b610772611792565b61077a6117bc565b8060000361079b5760405163162908e360e11b815260040160405180910390fd5b33600090815260056020526040902080546001600160801b03168211156107d557604051633a23d82560e01b815260040160405180910390fd5b80546000906107ee9084906001600160801b0316611a0c565b8254909150600160801b90046001600160801b03161561085a578154600090610828908390600160801b90046001600160801b03166117e0565b60065490915067ffffffffffffffff168110156108585760405163414db2e160e01b815260040160405180910390fd5b505b81546001600160801b0319166001600160801b038216178255600c8054849190600090610888908490611a33565b909155506108989050338461185d565b60405183815233907fc30fcfbcaac9e0deffa719714eaa82396ff506a0d0d0eebe170830177288715d9060200160405180910390a250506108d860018055565b50565b6108e3611792565b6108eb6117bc565b341561098c5733600090815260056020526040812080543492906109199084906001600160801b0316611a46565b92506101000a8154816001600160801b0302191690836001600160801b0316021790555034600c600082825461094f9190611a66565b9091555050604051348152439033907ff4d587c98d234ca4d147061e6b5167e7f41ee17f11562a9f0b49570abece859e9060200160405180910390a35b8015610b3657670de0b6b3a76400008110156109bb5760405163162908e360e11b815260040160405180910390fd5b336000908152600560205260408120805490916001600160801b0390911690036109f857604051633a23d82560e01b815260040160405180910390fd5b8054600090610a18908490600160801b90046001600160801b0316611a46565b8254909150600090610a33906001600160801b0316836117e0565b60065490915067ffffffffffffffff16811015610a635760405163414db2e160e01b815260040160405180910390fd5b82546001600160801b03838116600160801b0291161783556040516340c10f1960e01b8152336004820152602481018590526001600160a01b037f000000000000000000000000000000000000000000000000000000000000000016906340c10f1990604401600060405180830381600087803b158015610ae357600080fd5b505af1158015610af7573d6000803e3d6000fd5b50506040518681528392503391507ffe2d0fd52ab7fc1ad80d288ff038a387afef9982c5ec24ab1a0f07e3d9251c4b9060200160405180910390a35050505b6108d860018055565b6001600160a01b03811660009081526005602090815260408083208151808301909252546001600160801b03808216808452600160801b9092041692820183905283928392839283928380828103610b9e575060001990506000610c00565b6000610ba8610c14565b90506000670de0b6b3a7640000610bbf8388611a79565b610bc99190611aa6565b905084610bd861271083611a79565b610be29190611aa6565b600654909450600160401b900467ffffffffffffffff168410925050505b929a91995097509095506000945092505050565b60008060007f00000000000000000000000000000000000000000000000000000000000000006001600160a01b031663feaf968c6040518163ffffffff1660e01b815260040160a060405180830381865afa158015610c77573d6000803e3d6000fd5b505050506040513d601f19601f82011682018060405250810190610c9b9190611ad4565b509350509250506000807f00000000000000000000000000000000000000000000000000000000000000006001600160a01b031663feaf968c6040518163ffffffff1660e01b815260040160a060405180830381865afa158015610d03573d6000803e3d6000fd5b505050506040513d601f19601f82011682018060405250810190610d279190611ad4565b506003549295509350429250610d3f90508583611a33565b1180610d555750600354610d538383611a33565b115b15610d73576040516328771d9160e01b815260040160405180910390fd5b600085131580610d84575060008313155b15610da15760405162bfc92160e01b815260040160405180910390fd5b60006305f5e100610db28588611b24565b610dbc9190611b54565b90506305f5e10060045482610dd19190611a79565b610ddb9190611aa6565b965050505050505090565b610dee6118d6565b610df86000611903565b565b610e02611792565b610e0a6117bc565b80600003610e2b5760405163162908e360e11b815260040160405180910390fd5b3360009081526005602052604090208054600160801b90046001600160801b0316821115610e6c5760405163ac4314a960e01b815260040160405180910390fd5b805482908290601090610e90908490600160801b90046001600160801b0316611a0c565b82546001600160801b039182166101009390930a92830291909202199091161790555060405163079cc67960e41b8152336004820152602481018390526001600160a01b037f000000000000000000000000000000000000000000000000000000000000000016906379cc679090604401600060405180830381600087803b158015610f1b57600080fd5b505af1158015610f2f573d6000803e3d6000fd5b5050825460009250610f5591506001600160801b0380821691600160801b9004166117e0565b905080336001600160a01b03167fb209e0872ce798ce0c6bf8842822f5fc21173743a5eb59fadc15de136013e64e85604051610f9391815260200190565b60405180910390a350506108d860018055565b610fae6118d6565b61012c811080610fc057506201518081115b15610fde5760405163aabd5a0960e01b815260040160405180910390fd5b600381905560405181815233907f54cdf0ea49fad6497fa64db31c99cc64a42bca7837ea35ad156832d95ec5f242906020015b60405180910390a250565b611024611792565b61102c6117bc565b670de0b6b3a76400008110156109bb5760405163162908e360e11b815260040160405180910390fd5b61105d611792565b6110656117bc565b346000036110865760405163162908e360e11b815260040160405180910390fd5b33600090815260056020526040812080543492906110ae9084906001600160801b0316611a46565b92506101000a8154816001600160801b0302191690836001600160801b0316021790555034600c60008282546110e49190611a66565b9091555050604051348152439033907ff4d587c98d234ca4d147061e6b5167e7f41ee17f11562a9f0b49570abece859e9060200160405180910390a3610df860018055565b6111316118d6565b806000036111515760405162bfc92160e01b815260040160405180910390fd5b600481905560405181815233907f702aa64c1f76aab4c7d770bc8f8a7314f721188b40dc9f5faf97cbf2fcb58e1890602001611011565b611190611792565b6111986117bc565b3360009081526005602052604090208215611310578054600160801b90046001600160801b03168311156111df5760405163ac4314a960e01b815260040160405180910390fd5b805483908290601090611203908490600160801b90046001600160801b0316611a0c565b82546001600160801b039182166101009390930a92830291909202199091161790555060405163079cc67960e41b8152336004820152602481018490526001600160a01b037f000000000000000000000000000000000000000000000000000000000000000016906379cc679090604401600060405180830381600087803b15801561128e57600080fd5b505af11580156112a2573d6000803e3d6000fd5b50508254600092506112c891506001600160801b0380821691600160801b9004166117e0565b905080336001600160a01b03167fb209e0872ce798ce0c6bf8842822f5fc21173743a5eb59fadc15de136013e64e8660405161130691815260200190565b60405180910390a3505b811561143b5780546001600160801b031682111561134157604051633a23d82560e01b815260040160405180910390fd5b805460009061135a9084906001600160801b0316611a0c565b8254909150600160801b90046001600160801b0316156113c6578154600090611394908390600160801b90046001600160801b03166117e0565b60065490915067ffffffffffffffff168110156113c45760405163414db2e160e01b815260040160405180910390fd5b505b81546001600160801b0319166001600160801b038216178255600c80548491906000906113f4908490611a33565b909155506114049050338461185d565b60405183815233907fc30fcfbcaac9e0deffa719714eaa82396ff506a0d0d0eebe170830177288715d9060200160405180910390a2505b5061144560018055565b5050565b6114516118d6565b6001600160a01b03811661148057604051631e4fbdf760e01b8152600060048201526024015b60405180910390fd5b6108d881611903565b611491611792565b6001600160a01b038216600090815260056020526040812080549091600160801b9091046001600160801b031690036114dd5760405163ac4314a960e01b815260040160405180910390fd5b80546000906114ff906001600160801b0380821691600160801b9004166117e0565b600654909150600160401b900467ffffffffffffffff1681106115355760405163791b3ae360e01b815260040160405180910390fd5b81546000906127109061155b9061138890600160801b90046001600160801b0316611a79565b6115659190611aa6565b9050808411156115885760405163162908e360e11b815260040160405180910390fd5b6000611592610c14565b90506000816115a56305f5e10088611a79565b6115af9190611aa6565b905060006127106115c26101f484611a79565b6115cc9190611aa6565b905060006115da8284611a66565b87549091506001600160801b031681111561160857604051633a23d82560e01b815260040160405180910390fd5b8654819088906000906116259084906001600160801b0316611a0c565b92506101000a8154816001600160801b0302191690836001600160801b03160217905550878760000160108282829054906101000a90046001600160801b031661166f9190611a0c565b92506101000a8154816001600160801b0302191690836001600160801b0316021790555080600c60008282546116a59190611a33565b909155505060405163079cc67960e41b8152336004820152602481018990527f00000000000000000000000000000000000000000000000000000000000000006001600160a01b0316906379cc679090604401600060405180830381600087803b15801561171257600080fd5b505af1158015611726573d6000803e3d6000fd5b50505050611734338261185d565b604080518981526020810185905290810183905233906001600160a01b038b16907f7c5756667bebbcbc3f1e6131bf84d1495438a4e70c03feb204595cc417f5476e9060600160405180910390a35050505050505061144560018055565b6002600154036117b557604051633ee5aeb560e01b815260040160405180910390fd5b6002600155565b60025460ff1615610df85760405163d93c066560e01b815260040160405180910390fd5b6000816001600160801b03166000036117fc5750600019611857565b6000611806610c14565b90506000670de0b6b3a7640000611826836001600160801b038816611a79565b6118309190611aa6565b90506001600160801b03841661184861271083611a79565b6118529190611aa6565b925050505b92915050565b6000826001600160a01b03168260405160006040518083038185875af1925050503d80600081146118aa576040519150601f19603f3d011682016040523d82523d6000602084013e6118af565b606091505b50509050806118d1576040516312171d8360e31b815260040160405180910390fd5b505050565b6000546001600160a01b03163314610df85760405163118cdaa760e01b8152336004820152602401611477565b600080546001600160a01b038381166001600160a01b0319831681178455604051919092169283917f8be0079c531659141344cd1fd0a4f28419497f9722a3daafe3b4186f6b6457e09190a35050565b80356001600160a01b038116811461196a57600080fd5b919050565b60006020828403121561198157600080fd5b61198a82611953565b9392505050565b6000602082840312156119a357600080fd5b5035919050565b600080604083850312156119bd57600080fd5b50508035926020909101359150565b600080604083850312156119df57600080fd5b6119e883611953565b946020939093013593505050565b634e487b7160e01b600052601160045260246000fd5b6001600160801b03828116828216039080821115611a2c57611a2c6119f6565b5092915050565b81810381811115611857576118576119f6565b6001600160801b03818116838216019080821115611a2c57611a2c6119f6565b80820180821115611857576118576119f6565b8082028115828204841417611857576118576119f6565b634e487b7160e01b600052601260045260246000fd5b600082611ab557611ab5611a90565b500490565b805169ffffffffffffffffffff8116811461196a57600080fd5b600080600080600060a08688031215611aec57600080fd5b611af586611aba565b9450602086015193506040860151925060608601519150611b1860808701611aba565b90509295509295909350565b80820260008212600160ff1b84141615611b4057611b406119f6565b8181058314821517611857576118576119f6565b600082611b6357611b63611a90565b600160ff1b821460001984141615611b7d57611b7d6119f6565b50059056fea2646970667358221220748009ce1538573d333620ff1564c64bf9a938300e5d98223de29d9ea30de08d64736f6c63430008140033",
  "linkReferences": {},
  "deployedLinkReferences": {}
}