{
  "_format": "hh-sol-artifact-1",
  "contractName": "MockV3Aggregator",
  "sourceName": "contracts/mocks/MockV3Aggregator.sol",
  "abi": [
    {
      "inputs": [
        {
          "internalType": "uint8",
          "name": "_decimals",
          "type": "uint8"
        },
        {
          "internalType": "int256",
          "name": "_initialAnswer",
          "type": "int256"
        }
      ],
      "stateMutability": "nonpayable",
      "type": "constructor"
    },
    {
      "anonymous": false,
      "inputs": [
        {
          "indexed": true,
          "internalType": "string",
          "name": "symbol",
          "type": "string"
        },
        {
          "indexed": true,
          "internalType": "int256",
          "name": "current",
          "type": "int256"
        },
        {
          "indexed": true,
          "internalType": "uint256",
          "name": "roundId",
          "type": "uint256"
        },
        {
          "indexed": false,
          "internalType": "uint256",
          "name": "updatedAt",
          "type": "uint256"
        }
      ],
      "name": "AnswerUpdated",
      "type": "event"
    },
    {
      "anonymous": false,
      "inputs": [
        {
          "indexed": true,
          "internalType": "string",
          "name": "symbol",
          "type": "string"
        },
        {
          "indexed": true,
          "internalType": "uint256",
          "name": "roundId",
          "type": "uint256"
        },
        {
          "indexed": true,
          "internalType": "address",
          "name": "startedBy",
          "type": "address"
        },
        {
          "indexed": false,
          "internalType": "uint256",
          "name": "startedAt",
          "type": "uint256"
        }
      ],
      "name": "NewRound",
      "type": "event"
    },
    {
      "inputs": [
        {
          "internalType": "string",
          "name": "symbol",
          "type": "string"
        },
        {
          "internalType": "uint8",
          "name": "_decimals",
          "type": "uint8"
        },
        {
          "internalType": "int256",
          "name": "initialAnswer",
          "type": "int256"
        }
      ],
      "name": "addMockAggregator",
      "outputs": [],
      "stateMutability": "nonpayable",
      "type": "function"
    },
    {
      "inputs": [
        {
          "internalType": "string",
          "name": "",
          "type": "string"
        }
      ],
      "name": "aggregatorData",
      "outputs": [
        {
          "internalType": "uint8",
          "name": "decimals",
          "type": "uint8"
        },
        {
          "internalType": "int256",
          "name": "latestAnswer",
          "type": "int256"
        },
        {
          "internalType": "uint256",
          "name": "updatedAt",
          "type": "uint256"
        },
        {
          "internalType": "string",
          "name": "description",
          "type": "string"
        },
        {
          "internalType": "uint80",
          "name": "roundId",
          "type": "uint80"
        }
      ],
      "stateMutability": "view",
      "type": "function"
    },
    {
      "inputs": [
        {
          "internalType": "string",
          "name": "",
          "type": "string"
        }
      ],
      "name": "aggregatorExists",
      "outputs": [
        {
          "internalType": "bool",
          "name": "",
          "type": "bool"
        }
      ],
      "stateMutability": "view",
      "type": "function"
    },
    {
      "inputs": [
        {
          "internalType": "string[]",
          "name": "symbols",
          "type": "string[]"
        },
        {
          "internalType": "int256[]",
          "name": "newAnswers",
          "type": "int256[]"
        }
      ],
      "name": "batchUpdateAnswers",
      "outputs": [],
      "stateMutability": "nonpayable",
      "type": "function"
    },
    {
      "inputs": [],
      "name": "decimals",
      "outputs": [
        {
          "internalType": "uint8",
          "name": "",
          "type": "uint8"
        }
      ],
      "stateMutability": "view",
      "type": "function"
    },
    {
      "inputs": [],
      "name": "description",
      "outputs": [
        {
          "internalType": "string",
          "name": "",
          "type": "string"
        }
      ],
      "stateMutability": "view",
      "type": "function"
    },
    {
      "inputs": [
        {
          "internalType": "string",
          "name": "symbol",
          "type": "string"
        }
      ],
      "name": "getAggregatorData",
      "outputs": [
        {
          "components": [
            {
              "internalType": "uint8",
              "name": "decimals",
              "type": "uint8"
            },
            {
              "internalType": "int256",
              "name": "latestAnswer",
              "type": "int256"
            },
            {
              "internalType": "uint256",
              "name": "updatedAt",
              "type": "uint256"
            },
            {
              "internalType": "string",
              "name": "description",
              "type": "string"
            },
            {
              "internalType": "uint80",
              "name": "roundId",
              "type": "uint80"
            }
          ],
          "internalType": "struct MockV3Aggregator.MockAggregatorData",
          "name": "",
          "type": "tuple"
        }
      ],
      "stateMutability": "view",
      "type": "function"
    },
    {
      "inputs": [
        {
          "internalType": "string",
          "name": "symbol",
          "type": "string"
        }
      ],
      "name": "getDecimals",
      "outputs": [
        {
          "internalType": "uint8",
          "name": "",
          "type": "uint8"
        }
      ],
      "stateMutability": "view",
      "type": "function"
    },
    {
      "inputs": [
        {
          "internalType": "string",
          "name": "symbol",
          "type": "string"
        }
      ],
      "name": "getDescription",
      "outputs": [
        {
          "internalType": "string",
          "name": "",
          "type": "string"
        }
      ],
      "stateMutability": "view",
      "type": "function"
    },
    {
      "inputs": [
        {
          "internalType": "string",
          "name": "symbol",
          "type": "string"
        }
      ],
      "name": "getLatestAnswer",
      "outputs": [
        {
          "internalType": "int256",
          "name": "",
          "type": "int256"
        }
      ],
      "stateMutability": "view",
      "type": "function"
    },
    {
      "inputs": [
        {
          "internalType": "string",
          "name": "symbol",
          "type": "string"
        }
      ],
      "name": "getLatestRoundData",
      "outputs": [
        {
          "internalType": "uint80",
          "name": "roundId",
          "type": "uint80"
        },
        {
          "internalType": "int256",
          "name": "answer",
          "type": "int256"
        },
        {
          "internalType": "uint256",
          "name": "startedAt",
          "type": "uint256"
        },
        {
          "internalType": "uint256",
          "name": "updatedAt",
          "type": "uint256"
        },
        {
          "internalType": "uint80",
          "name": "answeredInRound",
          "type": "uint80"
        }
      ],
      "stateMutability": "view",
      "type": "function"
    },
    {
      "inputs": [
        {
          "internalType": "string[]",
          "name": "symbols",
          "type": "string[]"
        }
      ],
      "name": "getMultipleLatestAnswers",
      "outputs": [
        {
          "internalType": "int256[]",
          "name": "answers",
          "type": "int256[]"
        }
      ],
      "stateMutability": "view",
      "type": "function"
    },
    {
      "inputs": [
        {
          "internalType": "string",
          "name": "symbol",
          "type": "string"
        },
        {
          "internalType": "uint80",
          "name": "roundId",
          "type": "uint80"
        }
      ],
      "name": "getRoundData",
      "outputs": [
        {
          "internalType": "uint80",
          "name": "id",
          "type": "uint80"
        },
        {
          "internalType": "int256",
          "name": "answer",
          "type": "int256"
        },
        {
          "internalType": "uint256",
          "name": "startedAt",
          "type": "uint256"
        },
        {
          "internalType": "uint256",
          "name": "updatedAt",
          "type": "uint256"
        },
        {
          "internalType": "uint80",
          "name": "answeredInRound",
          "type": "uint80"
        }
      ],
      "stateMutability": "view",
      "type": "function"
    },
    {
      "inputs": [
        {
          "internalType": "uint80",
          "name": "roundId",
          "type": "uint80"
        }
      ],
      "name": "getRoundData",
      "outputs": [
        {
          "internalType": "uint80",
          "name": "id",
          "type": "uint80"
        },
        {
          "internalType": "int256",
          "name": "answer",
          "type": "int256"
        },
        {
          "internalType": "uint256",
          "name": "startedAt",
          "type": "uint256"
        },
        {
          "internalType": "uint256",
          "name": "updatedAt",
          "type": "uint256"
        },
        {
          "internalType": "uint80",
          "name": "answeredInRound",
          "type": "uint80"
        }
      ],
      "stateMutability": "view",
      "type": "function"
    },
    {
      "inputs": [
        {
          "internalType": "string",
          "name": "symbol",
          "type": "string"
        }
      ],
      "name": "hasAggregator",
      "outputs": [
        {
          "internalType": "bool",
          "name": "",
          "type": "bool"
        }
      ],
      "stateMutability": "view",
      "type": "function"
    },
    {
      "inputs": [],
      "name": "latestRoundData",
      "outputs": [
        {
          "internalType": "uint80",
          "name": "roundId",
          "type": "uint80"
        },
        {
          "internalType": "int256",
          "name": "answer",
          "type": "int256"
        },
        {
          "internalType": "uint256",
          "name": "startedAt",
          "type": "uint256"
        },
        {
          "internalType": "uint256",
          "name": "updatedAt",
          "type": "uint256"
        },
        {
          "internalType": "uint80",
          "name": "answeredInRound",
          "type": "uint80"
        }
      ],
      "stateMutability": "view",
      "type": "function"
    },
    {
      "inputs": [
        {
          "internalType": "string",
          "name": "symbol",
          "type": "string"
        },
        {
          "internalType": "int256",
          "name": "resetPrice",
          "type": "int256"
        }
      ],
      "name": "resetAggregator",
      "outputs": [],
      "stateMutability": "nonpayable",
      "type": "function"
    },
    {
      "inputs": [
        {
          "internalType": "string",
          "name": "symbol",
          "type": "string"
        },
        {
          "internalType": "int256",
          "name": "percentageChange",
          "type": "int256"
        }
      ],
      "name": "simulatePriceMovement",
      "outputs": [],
      "stateMutability": "nonpayable",
      "type": "function"
    },
    {
      "inputs": [
        {
          "internalType": "string",
          "name": "symbol",
          "type": "string"
        },
        {
          "internalType": "int256",
          "name": "newAnswer",
          "type": "int256"
        }
      ],
      "name": "updateAnswer",
      "outputs": [],
      "stateMutability": "nonpayable",
      "type": "function"
    },
    {
      "inputs": [
        {
          "internalType": "int256",
          "name": "newAnswer",
          "type": "int256"
        }
      ],
      "name": "updateAnswer",
      "outputs": [],
      "stateMutability": "nonpayable",
      "type": "function"
    },
    {
      "inputs": [],
      "name": "version",
      "outputs": [
        {
          "internalType": "uint256",
          "name": "",
          "type": "uint256"
        }
      ],
      "stateMutability": "view",
      "type": "function"
    }
  ],
  "bytecode": "0x6080604052600160045534801561001557600080fd5b5060405161224338038061224383398101604081905261003491610299565b6002805460ff191660ff841617905560408051808201909152600f81526e26b7b1b59020b3b3b932b3b0ba37b960891b6020820152600390610076908261036c565b506040805180820190915260048152635553444360e01b60208201526100a29060086305f5e1006101ad565b6040805180820190915260048152630ae8aa8960e31b60208201526100ce906008642e90edd0006101ad565b6040805180820190915260048152635742544360e01b60208201526100fb9060086503a3529440006101ad565b604080518082019091526006815265574d4154494360d01b60208201526101289060086304c4b4006101ad565b6040805180820190915260048152631554d11560e21b60208201526101539060086305f5e1006101ad565b60408051808201909152600381526244414960e81b602082015261017d9060086305f5e1006101ad565b6040805180820190915260078152661111519055531560ca1b60208201526101a69083836101ad565b5050610459565b6040518060a001604052808360ff16815260200182815260200142815260200184815260200160016001600160501b03168152506000846040516101f1919061042a565b90815260408051602092819003830190208351815460ff191660ff909116178155918301516001830155820151600282015560608201516003820190610237908261036c565b5060809190910151600490910180546001600160501b0319166001600160501b03909216919091179055604051600190819061027490869061042a565b908152604051908190036020019020805491151560ff19909216919091179055505050565b600080604083850312156102ac57600080fd5b825160ff811681146102bd57600080fd5b6020939093015192949293505050565b634e487b7160e01b600052604160045260246000fd5b600181811c908216806102f757607f821691505b60208210810361031757634e487b7160e01b600052602260045260246000fd5b50919050565b601f82111561036757806000526020600020601f840160051c810160208510156103445750805b601f840160051c820191505b818110156103645760008155600101610350565b50505b505050565b81516001600160401b03811115610385576103856102cd565b6103998161039384546102e3565b8461031d565b6020601f8211600181146103cd57600083156103b55750848201515b600019600385901b1c1916600184901b178455610364565b600084815260208120601f198516915b828110156103fd57878501518255602094850194600190920191016103dd565b508482101561041b5786840151600019600387901b60f8161c191681555b50505050600190811b01905550565b6000825160005b8181101561044b5760208186018101518583015201610431565b506000920191825250919050565b611ddb806104686000396000f3fe608060405234801561001057600080fd5b50600436106101375760003560e01c80637284e416116100b8578063afd0fd1d1161007c578063afd0fd1d146102d1578063d0fc3086146102e4578063e5a781d8146102f7578063f5e0bf4c1461030a578063fbc1d84b14610348578063feaf968c1461035b57600080fd5b80637284e4161461027d5780639a6fc8f5146102855780639e71b6a214610298578063a7666f66146102ab578063a87a20ce146102be57600080fd5b80635363bd1b116100ff5780635363bd1b146101d957806354fd4d50146101fa5780635af676ad1461020357806360258db7146102165780636471a6801461023657600080fd5b806310c274d41461013c578063313ce567146101515780633c1c7b201461017557806345de2ca01461019557806350d8929a146101b5575b600080fd5b61014f61014a3660046115b4565b610363565b005b60025461015e9060ff1681565b60405160ff90911681526020015b60405180910390f35b6101886101833660046116ac565b610470565b60405161016c91906116e8565b6101a86101a336600461172b565b610591565b60405161016c91906117af565b6101c86101c336600461172b565b610683565b60405161016c9594939291906117c9565b6101ec6101e736600461172b565b610754565b60405190815260200161016c565b6101ec60045481565b61014f6102113660046115b4565b6107be565b61022961022436600461172b565b610853565b60405161016c919061180c565b61024961024436600461187d565b6109b2565b604080516001600160501b03968716815260208101959095528401929092526060830152909116608082015260a00161016c565b6101a8610b08565b6102496102933660046118ce565b610b96565b61014f6102a63660046115b4565b610cad565b6102496102b936600461172b565b610df7565b61014f6102cc3660046118eb565b610f54565b61015e6102df36600461172b565b610fdd565b61014f6102f2366004611904565b611047565b61014f6103053660046119c6565b61126f565b61033861031836600461172b565b805160208183018101805160018252928201919093012091525460ff1681565b604051901515815260200161016c565b61033861035636600461172b565b6112ea565b6102496112fc565b6001826040516103739190611a25565b9081526040519081900360200190205460ff166103ab5760405162461bcd60e51b81526004016103a290611a41565b60405180910390fd5b600080836040516103bc9190611a25565b908152604051908190036020019020600181018390554260028201556004810180549192506001600160501b039091169060006103f883611a85565b82546101009290920a6001600160501b038181021990931691831602179091556004830154604051911691508390610431908690611a25565b604051908190038120428252907febeede5b3fdf1d3a33f6774c48d0ae3bf20c807f41e848858872cb89a2ec28289060200160405180910390a4505050565b606081516001600160401b0381111561048b5761048b6114ff565b6040519080825280602002602001820160405280156104b4578160200160208202803683370190505b50905060005b825181101561058b5760018382815181106104d7576104d7611ab0565b60200260200101516040516104ec9190611a25565b9081526040519081900360200190205460ff161561056257600083828151811061051857610518611ab0565b602002602001015160405161052d9190611a25565b90815260200160405180910390206001015482828151811061055157610551611ab0565b602002602001018181525050610583565b600082828151811061057657610576611ab0565b6020026020010181815250505b6001016104ba565b50919050565b60606001826040516105a39190611a25565b9081526040519081900360200190205460ff166105d25760405162461bcd60e51b81526004016103a290611a41565b6000826040516105e29190611a25565b908152602001604051809103902060030180546105fe90611ac6565b80601f016020809104026020016040519081016040528092919081815260200182805461062a90611ac6565b80156106775780601f1061064c57610100808354040283529160200191610677565b820191906000526020600020905b81548152906001019060200180831161065a57829003601f168201915b50505050509050919050565b8051602081830181018051600082529282019190930120915280546001820154600283015460038401805460ff9094169492939192916106c290611ac6565b80601f01602080910402602001604051908101604052809291908181526020018280546106ee90611ac6565b801561073b5780601f106107105761010080835404028352916020019161073b565b820191906000526020600020905b81548152906001019060200180831161071e57829003601f168201915b505050600490930154919250506001600160501b031685565b60006001826040516107669190611a25565b9081526040519081900360200190205460ff166107955760405162461bcd60e51b81526004016103a290611a41565b6000826040516107a59190611a25565b9081526020016040518091039020600101549050919050565b6001826040516107ce9190611a25565b9081526040519081900360200190205460ff166107fd5760405162461bcd60e51b81526004016103a290611a41565b6000808360405161080e9190611a25565b908152604051908190036020018120600180820185905542600283015560048201805469ffffffffffffffffffff191682179055909250908390610431908690611a25565b6040805160a0810182526000808252602082018190528183018190526060808301526080820152905160019061088a908490611a25565b9081526040519081900360200190205460ff166108b95760405162461bcd60e51b81526004016103a290611a41565b6000826040516108c99190611a25565b90815260408051918290036020908101832060a084018352805460ff16845260018101549184019190915260028101549183019190915260038101805460608401919061091590611ac6565b80601f016020809104026020016040519081016040528092919081815260200182805461094190611ac6565b801561098e5780601f106109635761010080835404028352916020019161098e565b820191906000526020600020905b81548152906001019060200180831161097157829003601f168201915b5050509183525050600491909101546001600160501b031660209091015292915050565b60008060008060006001876040516109ca9190611a25565b9081526040519081900360200190205460ff166109f95760405162461bcd60e51b81526004016103a290611a41565b60008088604051610a0a9190611a25565b90815260408051918290036020908101832060a084018352805460ff168452600181015491840191909152600281015491830191909152600381018054606084019190610a5690611ac6565b80601f0160208091040260200160405190810160405280929190818152602001828054610a8290611ac6565b8015610acf5780601f10610aa457610100808354040283529160200191610acf565b820191906000526020600020905b815481529060010190602001808311610ab257829003601f168201915b5050509183525050600491909101546001600160501b031660209182015281015160409091015197999098508796508995509350505050565b60038054610b1590611ac6565b80601f0160208091040260200160405190810160405280929190818152602001828054610b4190611ac6565b8015610b8e5780601f10610b6357610100808354040283529160200191610b8e565b820191906000526020600020905b815481529060010190602001808311610b7157829003601f168201915b505050505081565b60008060008060006001604051610bba90661111519055531560ca1b815260070190565b9081526040519081900360200190205460ff1615610c445760405162c8e34d60e71b81523090636471a68090610bf4908990600401611afa565b60a060405180830381865afa158015610c11573d6000803e3d6000fd5b505050506040513d601f19601f82011682018060405250810190610c359190611b38565b94509450945094509450610ca4565b604051635553444360e01b81526001906004019081526040519081900360200190205460ff1615610c915760405162c8e34d60e71b81523090636471a68090610bf4908990600401611b90565b508493506305f5e1009250429150819050835b91939590929450565b600182604051610cbd9190611a25565b9081526040519081900360200190205460ff16610cec5760405162461bcd60e51b81526004016103a290611a41565b60008083604051610cfd9190611a25565b90815260405190819003602001902060018101549091506000612710610d238584611bb4565b610d2d9190611bea565b90506000610d3b8284611c26565b90506000811215610d5457610d51600a84611bea565b90505b600184018190554260028501556004840180546001600160501b0316906000610d7c83611a85565b82546101009290920a6001600160501b038181021990931691831602179091556004860154604051911691508290610db5908990611a25565b604051908190038120428252907febeede5b3fdf1d3a33f6774c48d0ae3bf20c807f41e848858872cb89a2ec28289060200160405180910390a4505050505050565b6000806000806000600186604051610e0f9190611a25565b9081526040519081900360200190205460ff16610e3e5760405162461bcd60e51b81526004016103a290611a41565b60008087604051610e4f9190611a25565b90815260408051918290036020908101832060a084018352805460ff168452600181015491840191909152600281015491830191909152600381018054606084019190610e9b90611ac6565b80601f0160208091040260200160405190810160405280929190818152602001828054610ec790611ac6565b8015610f145780601f10610ee957610100808354040283529160200191610f14565b820191906000526020600020905b815481529060010190602001808311610ef757829003601f168201915b5050509183525050600491909101546001600160501b03166020918201526080820151908201516040909201519099919850965086955088945092505050565b604051661111519055531560ca1b81526001906007019081526040519081900360200190205460ff1615610fae57610fab604051806040016040528060078152602001661111519055531560ca1b81525082610363565b50565b6040805180820190915260078152661111519055531560ca1b6020820152600254610fab919060ff1683611410565b6000600182604051610fef9190611a25565b9081526040519081900360200190205460ff1661101e5760405162461bcd60e51b81526004016103a290611a41565b60008260405161102e9190611a25565b9081526040519081900360200190205460ff1692915050565b80518251146110905760405162461bcd60e51b8152602060048201526015602482015274082e4e4c2f240d8cadccee8d040dad2e6dac2e8c6d605b1b60448201526064016103a2565b6014825111156110d55760405162461bcd60e51b815260206004820152601060248201526f546f6f206d616e79207570646174657360801b60448201526064016103a2565b60005b825181101561126a5760018382815181106110f5576110f5611ab0565b602002602001015160405161110a9190611a25565b9081526040519081900360200190205460ff16156112625760008084838151811061113757611137611ab0565b602002602001015160405161114c9190611a25565b9081526020016040518091039020905082828151811061116e5761116e611ab0565b602090810291909101015160018201554260028201556004810180546001600160501b031690600061119f83611a85565b91906101000a8154816001600160501b0302191690836001600160501b03160217905550508060040160009054906101000a90046001600160501b03166001600160501b03168383815181106111f7576111f7611ab0565b602002602001015185848151811061121157611211611ab0565b60200260200101516040516112269190611a25565b604051908190038120428252907febeede5b3fdf1d3a33f6774c48d0ae3bf20c807f41e848858872cb89a2ec28289060200160405180910390a4505b6001016110d8565b505050565b60018360405161127f9190611a25565b9081526040519081900360200190205460ff16156112df5760405162461bcd60e51b815260206004820152601960248201527f41676772656761746f7220616c7265616479206578697374730000000000000060448201526064016103a2565b61126a838383611410565b600060018260405161102e9190611a25565b6000806000806000600160405161132090661111519055531560ca1b815260070190565b9081526040519081900360200190205460ff16156113a9576040516353b337b360e11b8152309063a7666f669061135990600401611c4e565b60a060405180830381865afa158015611376573d6000803e3d6000fd5b505050506040513d601f19601f8201168201806040525081019061139a9190611b38565b94509450945094509450611409565b604051635553444360e01b81526001906004019081526040519081900360200190205460ff16156113f5576040516353b337b360e11b8152309063a7666f669061135990600401611c75565b50600193506305f5e1009250429150819050835b9091929394565b6040518060a001604052808360ff16815260200182815260200142815260200184815260200160016001600160501b03168152506000846040516114549190611a25565b90815260408051602092819003830190208351815460ff191660ff90911617815591830151600183015582015160028201556060820151600382019061149a9082611ce7565b50608091909101516004909101805469ffffffffffffffffffff19166001600160501b0390921691909117905560405160019081906114da908690611a25565b908152604051908190036020019020805491151560ff19909216919091179055505050565b634e487b7160e01b600052604160045260246000fd5b604051601f8201601f191681016001600160401b038111828210171561153d5761153d6114ff565b604052919050565b600082601f83011261155657600080fd5b81356001600160401b0381111561156f5761156f6114ff565b611582601f8201601f1916602001611515565b81815284602083860101111561159757600080fd5b816020850160208301376000918101602001919091529392505050565b600080604083850312156115c757600080fd5b82356001600160401b038111156115dd57600080fd5b6115e985828601611545565b95602094909401359450505050565b60006001600160401b03821115611611576116116114ff565b5060051b60200190565b600082601f83011261162c57600080fd5b813561163f61163a826115f8565b611515565b8082825260208201915060208360051b86010192508583111561166157600080fd5b602085015b838110156116a25780356001600160401b0381111561168457600080fd5b611693886020838a0101611545565b84525060209283019201611666565b5095945050505050565b6000602082840312156116be57600080fd5b81356001600160401b038111156116d457600080fd5b6116e08482850161161b565b949350505050565b602080825282518282018190526000918401906040840190835b81811015611720578351835260209384019390920191600101611702565b509095945050505050565b60006020828403121561173d57600080fd5b81356001600160401b0381111561175357600080fd5b6116e084828501611545565b60005b8381101561177a578181015183820152602001611762565b50506000910152565b6000815180845261179b81602086016020860161175f565b601f01601f19169290920160200192915050565b6020815260006117c26020830184611783565b9392505050565b60ff8616815284602082015283604082015260a0606082015260006117f160a0830185611783565b90506001600160501b03831660808301529695505050505050565b6020815260ff825116602082015260208201516040820152604082015160608201526000606083015160a0608084015261184960c0840182611783565b90506001600160501b0360808501511660a08401528091505092915050565b6001600160501b0381168114610fab57600080fd5b6000806040838503121561189057600080fd5b82356001600160401b038111156118a657600080fd5b6118b285828601611545565b92505060208301356118c381611868565b809150509250929050565b6000602082840312156118e057600080fd5b81356117c281611868565b6000602082840312156118fd57600080fd5b5035919050565b6000806040838503121561191757600080fd5b82356001600160401b0381111561192d57600080fd5b6119398582860161161b565b92505060208301356001600160401b0381111561195557600080fd5b8301601f8101851361196657600080fd5b803561197461163a826115f8565b8082825260208201915060208360051b85010192508783111561199657600080fd5b6020840193505b828410156119b857833582526020938401939091019061199d565b809450505050509250929050565b6000806000606084860312156119db57600080fd5b83356001600160401b038111156119f157600080fd5b6119fd86828701611545565b935050602084013560ff81168114611a1457600080fd5b929592945050506040919091013590565b60008251611a3781846020870161175f565b9190910192915050565b6020808252601490820152731059d9dc9959d85d1bdc881b9bdd08199bdd5b9960621b604082015260600190565b634e487b7160e01b600052601160045260246000fd5b60006001600160501b0382166001600160501b038103611aa757611aa7611a6f565b60010192915050565b634e487b7160e01b600052603260045260246000fd5b600181811c90821680611ada57607f821691505b60208210810361058b57634e487b7160e01b600052602260045260246000fd5b604081526000611b216040830160078152661111519055531560ca1b602082015260400190565b90506001600160501b038316602083015292915050565b600080600080600060a08688031215611b5057600080fd5b8551611b5b81611868565b60208701516040880151606089015160808a015193985091965094509250611b8281611868565b809150509295509295909350565b604081526000611b216040830160048152635553444360e01b602082015260400190565b80820260008212600160ff1b84141615611bd057611bd0611a6f565b8181058314821517611be457611be4611a6f565b92915050565b600082611c0757634e487b7160e01b600052601260045260246000fd5b600160ff1b821460001984141615611c2157611c21611a6f565b500590565b8082018281126000831280158216821582161715611c4657611c46611a6f565b505092915050565b602081526000611be46020830160078152661111519055531560ca1b602082015260400190565b602081526000611be46020830160048152635553444360e01b602082015260400190565b601f82111561126a57806000526020600020601f840160051c81016020851015611cc05750805b601f840160051c820191505b81811015611ce05760008155600101611ccc565b5050505050565b81516001600160401b03811115611d0057611d006114ff565b611d1481611d0e8454611ac6565b84611c99565b6020601f821160018114611d485760008315611d305750848201515b600019600385901b1c1916600184901b178455611ce0565b600084815260208120601f198516915b82811015611d785787850151825560209485019460019092019101611d58565b5084821015611d965786840151600019600387901b60f8161c191681555b50505050600190811b0190555056fea26469706673582212204900f313a3340f57b2a57a7dc47a0e668c5b65a7a4280b290ab64ad32a5ad94c64736f6c634300081a0033",
  "linkReferences": {},
  "deployedLinkReferences": {}
}