{
  "_format": "hh-sol-artifact-1",
  "contractName": "MockV3Aggregator",
  "sourceName": "contracts/MockV3Aggregator.sol",
  "abi": [
    {
      "inputs": [
        {
          "internalType": "int256",
          "name": "_initialAnswer",
          "type": "int256"
        },
        {
          "internalType": "uint8",
          "name": "_decimals",
          "type": "uint8"
        },
        {
          "internalType": "string",
          "name": "_description",
          "type": "string"
        }
      ],
      "stateMutability": "nonpayable",
      "type": "constructor"
    },
    {
      "inputs": [],
      "name": "decimals",
      "outputs": [
        {
          "internalType": "uint8",
          "name": "",
          "type": "uint8"
        }
      ],
      "stateMutability": "view",
      "type": "function"
    },
    {
      "inputs": [],
      "name": "description",
      "outputs": [
        {
          "internalType": "string",
          "name": "",
          "type": "string"
        }
      ],
      "stateMutability": "view",
      "type": "function"
    },
    {
      "inputs": [
        {
          "internalType": "uint80",
          "name": "",
          "type": "uint80"
        }
      ],
      "name": "getRoundData",
      "outputs": [
        {
          "internalType": "uint80",
          "name": "roundId",
          "type": "uint80"
        },
        {
          "internalType": "int256",
          "name": "answer",
          "type": "int256"
        },
        {
          "internalType": "uint256",
          "name": "startedAt",
          "type": "uint256"
        },
        {
          "internalType": "uint256",
          "name": "updatedAt",
          "type": "uint256"
        },
        {
          "internalType": "uint80",
          "name": "answeredInRound",
          "type": "uint80"
        }
      ],
      "stateMutability": "view",
      "type": "function"
    },
    {
      "inputs": [],
      "name": "latestRoundData",
      "outputs": [
        {
          "internalType": "uint80",
          "name": "roundId",
          "type": "uint80"
        },
        {
          "internalType": "int256",
          "name": "answer",
          "type": "int256"
        },
        {
          "internalType": "uint256",
          "name": "startedAt",
          "type": "uint256"
        },
        {
          "internalType": "uint256",
          "name": "updatedAt",
          "type": "uint256"
        },
        {
          "internalType": "uint80",
          "name": "answeredInRound",
          "type": "uint80"
        }
      ],
      "stateMutability": "view",
      "type": "function"
    },
    {
      "inputs": [
        {
          "internalType": "int256",
          "name": "_newAnswer",
          "type": "int256"
        }
      ],
      "name": "updateAnswer",
      "outputs": [],
      "stateMutability": "nonpayable",
      "type": "function"
    },
    {
      "inputs": [
        {
          "internalType": "string",
          "name": "_newDescription",
          "type": "string"
        }
      ],
      "name": "updateDescription",
      "outputs": [],
      "stateMutability": "nonpayable",
      "type": "function"
    },
    {
      "inputs": [],
      "name": "version",
      "outputs": [
        {
          "internalType": "uint256",
          "name": "",
          "type": "uint256"
        }
      ],
      "stateMutability": "view",
      "type": "function"
    }
  ],
  "bytecode": "0x608060405234801561001057600080fd5b506040516107b23803806107b283398101604081905261002f916100a4565b60008390556001805460ff191660ff84161790558051610076576040518060400160405280600f81526020016e135bd8dac8141c9a58d94811995959608a1b815250610078565b805b6002906100859082610218565b505050506102d7565b634e487b7160e01b600052604160045260246000fd5b6000806000606084860312156100b957600080fd5b8351925060208085015160ff811681146100d257600080fd5b60408601519093506001600160401b03808211156100ef57600080fd5b818701915087601f83011261010357600080fd5b8151818111156101155761011561008e565b604051601f8201601f19908116603f0116810190838211818310171561013d5761013d61008e565b816040528281528a8684870101111561015557600080fd5b600093505b82841015610177578484018601518185018701529285019261015a565b60008684830101528096505050505050509250925092565b600181811c908216806101a357607f821691505b6020821081036101c357634e487b7160e01b600052602260045260246000fd5b50919050565b601f82111561021357600081815260208120601f850160051c810160208610156101f05750805b601f850160051c820191505b8181101561020f578281556001016101fc565b5050505b505050565b81516001600160401b038111156102315761023161008e565b6102458161023f845461018f565b846101c9565b602080601f83116001811461027a57600084156102625750858301515b600019600386901b1c1916600185901b17855561020f565b600085815260208120601f198616915b828110156102a95788860151825594840194600190910190840161028a565b50858210156102c75787850151600019600388901b60f8161c191681555b5050505050600190811b01905550565b6104cc806102e66000396000f3fe608060405234801561001057600080fd5b506004361061007d5760003560e01c80639a6fc8f51161005b5780639a6fc8f5146100c0578063a87a20ce14610114578063e735b48a14610129578063feaf968c1461013c57600080fd5b8063313ce5671461008257806354fd4d501461009c5780637284e416146100ab575b600080fd5b60015460405160ff90911681526020015b60405180910390f35b60405160018152602001610093565b6100b361014a565b60405161009391906101ec565b6100dd6100ce36600461023a565b50600054600191429081908490565b6040805169ffffffffffffffffffff968716815260208101959095528401929092526060830152909116608082015260a001610093565b61012761012236600461026d565b600055565b005b61012761013736600461029c565b6101dc565b6000546001904280836100dd565b6060600280546101599061034d565b80601f01602080910402602001604051908101604052809291908181526020018280546101859061034d565b80156101d25780601f106101a7576101008083540402835291602001916101d2565b820191906000526020600020905b8154815290600101906020018083116101b557829003601f168201915b5050505050905090565b60026101e882826103d6565b5050565b600060208083528351808285015260005b81811015610219578581018301518582016040015282016101fd565b506000604082860101526040601f19601f8301168501019250505092915050565b60006020828403121561024c57600080fd5b813569ffffffffffffffffffff8116811461026657600080fd5b9392505050565b60006020828403121561027f57600080fd5b5035919050565b634e487b7160e01b600052604160045260246000fd5b6000602082840312156102ae57600080fd5b813567ffffffffffffffff808211156102c657600080fd5b818401915084601f8301126102da57600080fd5b8135818111156102ec576102ec610286565b604051601f8201601f19908116603f0116810190838211818310171561031457610314610286565b8160405282815287602084870101111561032d57600080fd5b826020860160208301376000928101602001929092525095945050505050565b600181811c9082168061036157607f821691505b60208210810361038157634e487b7160e01b600052602260045260246000fd5b50919050565b601f8211156103d157600081815260208120601f850160051c810160208610156103ae5750805b601f850160051c820191505b818110156103cd578281556001016103ba565b5050505b505050565b815167ffffffffffffffff8111156103f0576103f0610286565b610404816103fe845461034d565b84610387565b602080601f83116001811461043957600084156104215750858301515b600019600386901b1c1916600185901b1785556103cd565b600085815260208120601f198616915b8281101561046857888601518255948401946001909101908401610449565b50858210156104865787850151600019600388901b60f8161c191681555b5050505050600190811b0190555056fea2646970667358221220410b72c955789d9013b9cc248b46b28f36a5d97031bcb809bf5373c3acfd052564736f6c63430008140033",
  "linkReferences": {},
  "deployedLinkReferences": {}
}