{
  "_format": "hh-sol-artifact-1",
  "contractName": "TGHSXToken",
  "sourceName": "contracts/TGHSXToken.sol",
  "abi": [
    {
      "inputs": [],
      "stateMutability": "nonpayable",
      "type": "constructor"
    },
    {
      "inputs": [],
      "name": "AccessControlBadConfirmation",
      "type": "error"
    },
    {
      "inputs": [
        {
          "internalType": "address",
          "name": "account",
          "type": "address"
        },
        {
          "internalType": "bytes32",
          "name": "neededRole",
          "type": "bytes32"
        }
      ],
      "name": "AccessControlUnauthorizedAccount",
      "type": "error"
    },
    {
      "inputs": [
        {
          "internalType": "address",
          "name": "spender",
          "type": "address"
        },
        {
          "internalType": "uint256",
          "name": "allowance",
          "type": "uint256"
        },
        {
          "internalType": "uint256",
          "name": "needed",
          "type": "uint256"
        }
      ],
      "name": "ERC20InsufficientAllowance",
      "type": "error"
    },
    {
      "inputs": [
        {
          "internalType": "address",
          "name": "sender",
          "type": "address"
        },
        {
          "internalType": "uint256",
          "name": "balance",
          "type": "uint256"
        },
        {
          "internalType": "uint256",
          "name": "needed",
          "type": "uint256"
        }
      ],
      "name": "ERC20InsufficientBalance",
      "type": "error"
    },
    {
      "inputs": [
        {
          "internalType": "address",
          "name": "approver",
          "type": "address"
        }
      ],
      "name": "ERC20InvalidApprover",
      "type": "error"
    },
    {
      "inputs": [
        {
          "internalType": "address",
          "name": "receiver",
          "type": "address"
        }
      ],
      "name": "ERC20InvalidReceiver",
      "type": "error"
    },
    {
      "inputs": [
        {
          "internalType": "address",
          "name": "sender",
          "type": "address"
        }
      ],
      "name": "ERC20InvalidSender",
      "type": "error"
    },
    {
      "inputs": [
        {
          "internalType": "address",
          "name": "spender",
          "type": "address"
        }
      ],
      "name": "ERC20InvalidSpender",
      "type": "error"
    },
    {
      "inputs": [],
      "name": "EmergencyStopActive",
      "type": "error"
    },
    {
      "inputs": [],
      "name": "InvalidAmount",
      "type": "error"
    },
    {
      "anonymous": false,
      "inputs": [
        {
          "indexed": true,
          "internalType": "address",
          "name": "owner",
          "type": "address"
        },
        {
          "indexed": true,
          "internalType": "address",
          "name": "spender",
          "type": "address"
        },
        {
          "indexed": false,
          "internalType": "uint256",
          "name": "value",
          "type": "uint256"
        }
      ],
      "name": "Approval",
      "type": "event"
    },
    {
      "anonymous": false,
      "inputs": [
        {
          "indexed": false,
          "internalType": "bool",
          "name": "status",
          "type": "bool"
        }
      ],
      "name": "EmergencyStopToggled",
      "type": "event"
    },
    {
      "anonymous": false,
      "inputs": [
        {
          "indexed": true,
          "internalType": "bytes32",
          "name": "role",
          "type": "bytes32"
        },
        {
          "indexed": true,
          "internalType": "bytes32",
          "name": "previousAdminRole",
          "type": "bytes32"
        },
        {
          "indexed": true,
          "internalType": "bytes32",
          "name": "newAdminRole",
          "type": "bytes32"
        }
      ],
      "name": "RoleAdminChanged",
      "type": "event"
    },
    {
      "anonymous": false,
      "inputs": [
        {
          "indexed": true,
          "internalType": "address",
          "name": "from",
          "type": "address"
        },
        {
          "indexed": false,
          "internalType": "uint256",
          "name": "amount",
          "type": "uint256"
        },
        {
          "indexed": true,
          "internalType": "address",
          "name": "burner",
          "type": "address"
        }
      ],
      "name": "RoleBurning",
      "type": "event"
    },
    {
      "anonymous": false,
      "inputs": [
        {
          "indexed": true,
          "internalType": "bytes32",
          "name": "role",
          "type": "bytes32"
        },
        {
          "indexed": true,
          "internalType": "address",
          "name": "account",
          "type": "address"
        },
        {
          "indexed": true,
          "internalType": "address",
          "name": "sender",
          "type": "address"
        }
      ],
      "name": "RoleGranted",
      "type": "event"
    },
    {
      "anonymous": false,
      "inputs": [
        {
          "indexed": true,
          "internalType": "bytes32",
          "name": "role",
          "type": "bytes32"
        },
        {
          "indexed": true,
          "internalType": "address",
          "name": "account",
          "type": "address"
        },
        {
          "indexed": true,
          "internalType": "address",
          "name": "sender",
          "type": "address"
        }
      ],
      "name": "RoleRevoked",
      "type": "event"
    },
    {
      "anonymous": false,
      "inputs": [
        {
          "indexed": true,
          "internalType": "address",
          "name": "from",
          "type": "address"
        },
        {
          "indexed": true,
          "internalType": "address",
          "name": "to",
          "type": "address"
        },
        {
          "indexed": false,
          "internalType": "uint256",
          "name": "value",
          "type": "uint256"
        }
      ],
      "name": "Transfer",
      "type": "event"
    },
    {
      "inputs": [],
      "name": "DEFAULT_ADMIN_ROLE",
      "outputs": [
        {
          "internalType": "bytes32",
          "name": "",
          "type": "bytes32"
        }
      ],
      "stateMutability": "view",
      "type": "function"
    },
    {
      "inputs": [],
      "name": "MINTER_BURNER_ROLE",
      "outputs": [
        {
          "internalType": "bytes32",
          "name": "",
          "type": "bytes32"
        }
      ],
      "stateMutability": "view",
      "type": "function"
    },
    {
      "inputs": [
        {
          "internalType": "address",
          "name": "owner",
          "type": "address"
        },
        {
          "internalType": "address",
          "name": "spender",
          "type": "address"
        }
      ],
      "name": "allowance",
      "outputs": [
        {
          "internalType": "uint256",
          "name": "",
          "type": "uint256"
        }
      ],
      "stateMutability": "view",
      "type": "function"
    },
    {
      "inputs": [
        {
          "internalType": "address",
          "name": "spender",
          "type": "address"
        },
        {
          "internalType": "uint256",
          "name": "value",
          "type": "uint256"
        }
      ],
      "name": "approve",
      "outputs": [
        {
          "internalType": "bool",
          "name": "",
          "type": "bool"
        }
      ],
      "stateMutability": "nonpayable",
      "type": "function"
    },
    {
      "inputs": [
        {
          "internalType": "address",
          "name": "account",
          "type": "address"
        }
      ],
      "name": "balanceOf",
      "outputs": [
        {
          "internalType": "uint256",
          "name": "",
          "type": "uint256"
        }
      ],
      "stateMutability": "view",
      "type": "function"
    },
    {
      "inputs": [
        {
          "internalType": "uint256",
          "name": "amount",
          "type": "uint256"
        }
      ],
      "name": "burn",
      "outputs": [],
      "stateMutability": "nonpayable",
      "type": "function"
    },
    {
      "inputs": [
        {
          "internalType": "address",
          "name": "from",
          "type": "address"
        },
        {
          "internalType": "uint256",
          "name": "amount",
          "type": "uint256"
        }
      ],
      "name": "burnFrom",
      "outputs": [],
      "stateMutability": "nonpayable",
      "type": "function"
    },
    {
      "inputs": [],
      "name": "decimals",
      "outputs": [
        {
          "internalType": "uint8",
          "name": "",
          "type": "uint8"
        }
      ],
      "stateMutability": "view",
      "type": "function"
    },
    {
      "inputs": [],
      "name": "emergencyStop",
      "outputs": [
        {
          "internalType": "bool",
          "name": "",
          "type": "bool"
        }
      ],
      "stateMutability": "view",
      "type": "function"
    },
    {
      "inputs": [
        {
          "internalType": "bytes32",
          "name": "role",
          "type": "bytes32"
        }
      ],
      "name": "getRoleAdmin",
      "outputs": [
        {
          "internalType": "bytes32",
          "name": "",
          "type": "bytes32"
        }
      ],
      "stateMutability": "view",
      "type": "function"
    },
    {
      "inputs": [
        {
          "internalType": "bytes32",
          "name": "role",
          "type": "bytes32"
        },
        {
          "internalType": "address",
          "name": "account",
          "type": "address"
        }
      ],
      "name": "grantRole",
      "outputs": [],
      "stateMutability": "nonpayable",
      "type": "function"
    },
    {
      "inputs": [
        {
          "internalType": "bytes32",
          "name": "role",
          "type": "bytes32"
        },
        {
          "internalType": "address",
          "name": "account",
          "type": "address"
        }
      ],
      "name": "hasRole",
      "outputs": [
        {
          "internalType": "bool",
          "name": "",
          "type": "bool"
        }
      ],
      "stateMutability": "view",
      "type": "function"
    },
    {
      "inputs": [
        {
          "internalType": "address",
          "name": "to",
          "type": "address"
        },
        {
          "internalType": "uint256",
          "name": "amount",
          "type": "uint256"
        }
      ],
      "name": "mint",
      "outputs": [],
      "stateMutability": "nonpayable",
      "type": "function"
    },
    {
      "inputs": [],
      "name": "name",
      "outputs": [
        {
          "internalType": "string",
          "name": "",
          "type": "string"
        }
      ],
      "stateMutability": "view",
      "type": "function"
    },
    {
      "inputs": [
        {
          "internalType": "bytes32",
          "name": "role",
          "type": "bytes32"
        },
        {
          "internalType": "address",
          "name": "callerConfirmation",
          "type": "address"
        }
      ],
      "name": "renounceRole",
      "outputs": [],
      "stateMutability": "nonpayable",
      "type": "function"
    },
    {
      "inputs": [
        {
          "internalType": "bytes32",
          "name": "role",
          "type": "bytes32"
        },
        {
          "internalType": "address",
          "name": "account",
          "type": "address"
        }
      ],
      "name": "revokeRole",
      "outputs": [],
      "stateMutability": "nonpayable",
      "type": "function"
    },
    {
      "inputs": [
        {
          "internalType": "address",
          "name": "from",
          "type": "address"
        },
        {
          "internalType": "uint256",
          "name": "amount",
          "type": "uint256"
        }
      ],
      "name": "roleBurn",
      "outputs": [],
      "stateMutability": "nonpayable",
      "type": "function"
    },
    {
      "inputs": [
        {
          "internalType": "bytes4",
          "name": "interfaceId",
          "type": "bytes4"
        }
      ],
      "name": "supportsInterface",
      "outputs": [
        {
          "internalType": "bool",
          "name": "",
          "type": "bool"
        }
      ],
      "stateMutability": "view",
      "type": "function"
    },
    {
      "inputs": [],
      "name": "symbol",
      "outputs": [
        {
          "internalType": "string",
          "name": "",
          "type": "string"
        }
      ],
      "stateMutability": "view",
      "type": "function"
    },
    {
      "inputs": [
        {
          "internalType": "bool",
          "name": "_emergencyStop",
          "type": "bool"
        }
      ],
      "name": "toggleEmergencyStop",
      "outputs": [],
      "stateMutability": "nonpayable",
      "type": "function"
    },
    {
      "inputs": [],
      "name": "totalSupply",
      "outputs": [
        {
          "internalType": "uint256",
          "name": "",
          "type": "uint256"
        }
      ],
      "stateMutability": "view",
      "type": "function"
    },
    {
      "inputs": [
        {
          "internalType": "address",
          "name": "to",
          "type": "address"
        },
        {
          "internalType": "uint256",
          "name": "amount",
          "type": "uint256"
        }
      ],
      "name": "transfer",
      "outputs": [
        {
          "internalType": "bool",
          "name": "",
          "type": "bool"
        }
      ],
      "stateMutability": "nonpayable",
      "type": "function"
    },
    {
      "inputs": [
        {
          "internalType": "address",
          "name": "from",
          "type": "address"
        },
        {
          "internalType": "address",
          "name": "to",
          "type": "address"
        },
        {
          "internalType": "uint256",
          "name": "amount",
          "type": "uint256"
        }
      ],
      "name": "transferFrom",
      "outputs": [
        {
          "internalType": "bool",
          "name": "",
          "type": "bool"
        }
      ],
      "stateMutability": "nonpayable",
      "type": "function"
    }
  ],
  "bytecode": "0x60806040526006805460ff191690553480156200001b57600080fd5b506040518060400160405280601081526020016f3a23a429ac1029ba30b13632b1b7b4b760811b815250604051806040016040528060058152602001640e88e90a6b60db1b8152508160039081620000749190620001f4565b506004620000838282620001f4565b5062000095915060009050336200009c565b50620002c0565b60008281526005602090815260408083206001600160a01b038516845290915281205460ff16620001455760008381526005602090815260408083206001600160a01b03861684529091529020805460ff19166001179055620000fc3390565b6001600160a01b0316826001600160a01b0316847f2f8788117e7eff1d82e926ec794901d17c78024a50270940304540a733656f0d60405160405180910390a450600162000149565b5060005b92915050565b634e487b7160e01b600052604160045260246000fd5b600181811c908216806200017a57607f821691505b6020821081036200019b57634e487b7160e01b600052602260045260246000fd5b50919050565b601f821115620001ef57600081815260208120601f850160051c81016020861015620001ca5750805b601f850160051c820191505b81811015620001eb57828155600101620001d6565b5050505b505050565b81516001600160401b038111156200021057620002106200014f565b620002288162000221845462000165565b84620001a1565b602080601f831160018114620002605760008415620002475750858301515b600019600386901b1c1916600185901b178555620001eb565b600085815260208120601f198616915b82811015620002915788860151825594840194600190910190840162000270565b5085821015620002b05787850151600019600388901b60f8161c191681555b5050505050600190811b01905550565b610ed380620002d06000396000f3fe608060405234801561001057600080fd5b506004361061014d5760003560e01c806342966c68116100c357806391d148541161007c57806391d14854146102cb57806395d89b41146102de578063a217fddf146102e6578063a9059cbb146102ee578063d547741f14610301578063dd62ed3e1461031457600080fd5b806342966c681461024757806363a599a41461025a5780636a767de81461026757806370a082311461027a57806372c32860146102a357806379cc6790146102b857600080fd5b806323b872dd1161011557806323b872dd146101c9578063248a9ca3146101dc5780632f2ff15d146101ff578063313ce5671461021257806336568abe1461022157806340c10f191461023457600080fd5b806301ffc9a71461015257806306fdde031461017a578063095ea7b31461018f57806315d253db146101a257806318160ddd146101b7575b600080fd5b610165610160366004610c7c565b61034d565b60405190151581526020015b60405180910390f35b610182610384565b6040516101719190610ca6565b61016561019d366004610d10565b610416565b6101b56101b0366004610d3a565b61042e565b005b6002545b604051908152602001610171565b6101656101d7366004610d5c565b610481565b6101bb6101ea366004610d98565b60009081526005602052604090206001015490565b6101b561020d366004610db1565b6104bb565b60405160128152602001610171565b6101b561022f366004610db1565b6104e6565b6101b5610242366004610d10565b61051e565b6101b5610255366004610d98565b610585565b6006546101659060ff1681565b6101b5610275366004610d10565b6105b5565b6101bb610288366004610ddd565b6001600160a01b031660009081526020819052604090205490565b6101bb600080516020610e7e83398151915281565b6101b56102c6366004610d10565b610662565b6101656102d9366004610db1565b610720565b61018261074b565b6101bb600081565b6101656102fc366004610d10565b61075a565b6101b561030f366004610db1565b610792565b6101bb610322366004610df8565b6001600160a01b03918216600090815260016020908152604080832093909416825291909152205490565b60006001600160e01b03198216637965db0b60e01b148061037e57506301ffc9a760e01b6001600160e01b03198316145b92915050565b60606003805461039390610e22565b80601f01602080910402602001604051908101604052809291908181526020018280546103bf90610e22565b801561040c5780601f106103e15761010080835404028352916020019161040c565b820191906000526020600020905b8154815290600101906020018083116103ef57829003601f168201915b5050505050905090565b6000336104248185856107a7565b5060019392505050565b6000610439816107b4565b6006805460ff19168315159081179091556040519081527f05b88d23d9a60b7924fccc370e1e0c1ccf49989e3b2968cafaf7db7fc13bd13f9060200160405180910390a15050565b60065460009060ff16156104a857604051630eff07c160e21b815260040160405180910390fd5b6104b38484846107be565b949350505050565b6000828152600560205260409020600101546104d6816107b4565b6104e083836107e2565b50505050565b6001600160a01b038116331461050f5760405163334bd91960e11b815260040160405180910390fd5b6105198282610876565b505050565b600080516020610e7e833981519152610536816107b4565b60065460ff161561055a57604051630eff07c160e21b815260040160405180910390fd5b8160000361057b5760405163162908e360e11b815260040160405180910390fd5b61051983836108e3565b60065460ff16156105a957604051630eff07c160e21b815260040160405180910390fd5b6105b28161091e565b50565b600080516020610e7e8339815191526105cd816107b4565b60065460ff16156105f157604051630eff07c160e21b815260040160405180910390fd5b816000036106125760405163162908e360e11b815260040160405180910390fd5b61061c8383610924565b60405182815233906001600160a01b038516907f93f36fb6edc26a4aeb07e6300b73cc2e57a57ecdcecc60ff10311ac244a61f0d906020015b60405180910390a3505050565b60065460ff161561068657604051630eff07c160e21b815260040160405180910390fd5b806000036106a75760405163162908e360e11b815260040160405180910390fd5b6106bf600080516020610e7e83398151915233610720565b15610712576106ce8282610924565b60405181815233906001600160a01b038416907f93f36fb6edc26a4aeb07e6300b73cc2e57a57ecdcecc60ff10311ac244a61f0d9060200160405180910390a35050565b61071c828261095a565b5050565b60009182526005602090815260408084206001600160a01b0393909316845291905290205460ff1690565b60606004805461039390610e22565b60065460009060ff161561078157604051630eff07c160e21b815260040160405180910390fd5b61078b838361096f565b9392505050565b600061079d816107b4565b6104e08383610876565b610519838383600161097d565b6105b28133610a52565b6000336107cc858285610a8b565b6107d7858585610b04565b506001949350505050565b60006107ee8383610720565b61086e5760008381526005602090815260408083206001600160a01b03861684529091529020805460ff191660011790556108263390565b6001600160a01b0316826001600160a01b0316847f2f8788117e7eff1d82e926ec794901d17c78024a50270940304540a733656f0d60405160405180910390a450600161037e565b50600061037e565b60006108828383610720565b1561086e5760008381526005602090815260408083206001600160a01b0386168085529252808320805460ff1916905551339286917ff6391f5c32d9c69d2a47ea670b442974b53935d1edc7fd64eb21e047a839171b9190a450600161037e565b6001600160a01b0382166109125760405163ec442f0560e01b8152600060048201526024015b60405180910390fd5b61071c60008383610b5f565b6105b233825b6001600160a01b03821661094e57604051634b637e8f60e11b815260006004820152602401610909565b61071c82600083610b5f565b610965823383610a8b565b61071c8282610924565b600033610424818585610b04565b6001600160a01b0384166109a75760405163e602df0560e01b815260006004820152602401610909565b6001600160a01b0383166109d157604051634a1406b160e11b815260006004820152602401610909565b6001600160a01b03808516600090815260016020908152604080832093871683529290522082905580156104e057826001600160a01b0316846001600160a01b03167f8c5be1e5ebec7d5bd14f71427d1e84f3dd0314c0f7b2291e5b200ac8c7c3b92584604051610a4491815260200190565b60405180910390a350505050565b610a5c8282610720565b61071c5760405163e2517d3f60e01b81526001600160a01b038216600482015260248101839052604401610909565b6001600160a01b038381166000908152600160209081526040808320938616835292905220546000198110156104e05781811015610af557604051637dc7a0d960e11b81526001600160a01b03841660048201526024810182905260448101839052606401610909565b6104e08484848403600061097d565b6001600160a01b038316610b2e57604051634b637e8f60e11b815260006004820152602401610909565b6001600160a01b038216610b585760405163ec442f0560e01b815260006004820152602401610909565b6105198383835b6001600160a01b038316610b8a578060026000828254610b7f9190610e5c565b90915550610bfc9050565b6001600160a01b03831660009081526020819052604090205481811015610bdd5760405163391434e360e21b81526001600160a01b03851660048201526024810182905260448101839052606401610909565b6001600160a01b03841660009081526020819052604090209082900390555b6001600160a01b038216610c1857600280548290039055610c37565b6001600160a01b03821660009081526020819052604090208054820190555b816001600160a01b0316836001600160a01b03167fddf252ad1be2c89b69c2b068fc378daa952ba7f163c4a11628f55a4df523b3ef8360405161065591815260200190565b600060208284031215610c8e57600080fd5b81356001600160e01b03198116811461078b57600080fd5b600060208083528351808285015260005b81811015610cd357858101830151858201604001528201610cb7565b506000604082860101526040601f19601f8301168501019250505092915050565b80356001600160a01b0381168114610d0b57600080fd5b919050565b60008060408385031215610d2357600080fd5b610d2c83610cf4565b946020939093013593505050565b600060208284031215610d4c57600080fd5b8135801515811461078b57600080fd5b600080600060608486031215610d7157600080fd5b610d7a84610cf4565b9250610d8860208501610cf4565b9150604084013590509250925092565b600060208284031215610daa57600080fd5b5035919050565b60008060408385031215610dc457600080fd5b82359150610dd460208401610cf4565b90509250929050565b600060208284031215610def57600080fd5b61078b82610cf4565b60008060408385031215610e0b57600080fd5b610e1483610cf4565b9150610dd460208401610cf4565b600181811c90821680610e3657607f821691505b602082108103610e5657634e487b7160e01b600052602260045260246000fd5b50919050565b8082018082111561037e57634e487b7160e01b600052601160045260246000fdfecfd53186d792f1ec9d0679afc2dc3ffc86fc31fe1e0f342b838eb6c3eade62b3a26469706673582212202615caeb7f97e606a9bc47912ecbc17866360b52972ad5207d137fb729323c9464736f6c63430008140033",
  "linkReferences": {},
  "deployedLinkReferences": {}
}