{
  "_format": "hh-sol-artifact-1",
  "contractName": "VersionRegistry",
  "sourceName": "contracts/VersionRegistry.sol",
  "abi": [
    {
      "inputs": [],
      "stateMutability": "nonpayable",
      "type": "constructor"
    },
    {
      "inputs": [],
      "name": "AccessControlBadConfirmation",
      "type": "error"
    },
    {
      "inputs": [
        {
          "internalType": "address",
          "name": "account",
          "type": "address"
        },
        {
          "internalType": "bytes32",
          "name": "neededRole",
          "type": "bytes32"
        }
      ],
      "name": "AccessControlUnauthorizedAccount",
      "type": "error"
    },
    {
      "anonymous": false,
      "inputs": [
        {
          "indexed": true,
          "internalType": "bytes32",
          "name": "role",
          "type": "bytes32"
        },
        {
          "indexed": true,
          "internalType": "bytes32",
          "name": "previousAdminRole",
          "type": "bytes32"
        },
        {
          "indexed": true,
          "internalType": "bytes32",
          "name": "newAdminRole",
          "type": "bytes32"
        }
      ],
      "name": "RoleAdminChanged",
      "type": "event"
    },
    {
      "anonymous": false,
      "inputs": [
        {
          "indexed": true,
          "internalType": "bytes32",
          "name": "role",
          "type": "bytes32"
        },
        {
          "indexed": true,
          "internalType": "address",
          "name": "account",
          "type": "address"
        },
        {
          "indexed": true,
          "internalType": "address",
          "name": "sender",
          "type": "address"
        }
      ],
      "name": "RoleGranted",
      "type": "event"
    },
    {
      "anonymous": false,
      "inputs": [
        {
          "indexed": true,
          "internalType": "bytes32",
          "name": "role",
          "type": "bytes32"
        },
        {
          "indexed": true,
          "internalType": "address",
          "name": "account",
          "type": "address"
        },
        {
          "indexed": true,
          "internalType": "address",
          "name": "sender",
          "type": "address"
        }
      ],
      "name": "RoleRevoked",
      "type": "event"
    },
    {
      "anonymous": false,
      "inputs": [
        {
          "indexed": true,
          "internalType": "string",
          "name": "component",
          "type": "string"
        },
        {
          "indexed": true,
          "internalType": "uint256",
          "name": "version",
          "type": "uint256"
        },
        {
          "indexed": true,
          "internalType": "address",
          "name": "contractAddress",
          "type": "address"
        },
        {
          "indexed": false,
          "internalType": "string",
          "name": "notes",
          "type": "string"
        }
      ],
      "name": "VersionUpdated",
      "type": "event"
    },
    {
      "inputs": [],
      "name": "DEFAULT_ADMIN_ROLE",
      "outputs": [
        {
          "internalType": "bytes32",
          "name": "",
          "type": "bytes32"
        }
      ],
      "stateMutability": "view",
      "type": "function"
    },
    {
      "inputs": [],
      "name": "UPGRADER_ROLE",
      "outputs": [
        {
          "internalType": "bytes32",
          "name": "",
          "type": "bytes32"
        }
      ],
      "stateMutability": "view",
      "type": "function"
    },
    {
      "inputs": [
        {
          "internalType": "string",
          "name": "component",
          "type": "string"
        }
      ],
      "name": "getHistory",
      "outputs": [
        {
          "components": [
            {
              "internalType": "uint256",
              "name": "version",
              "type": "uint256"
            },
            {
              "internalType": "address",
              "name": "contractAddress",
              "type": "address"
            },
            {
              "internalType": "uint256",
              "name": "deploymentDate",
              "type": "uint256"
            },
            {
              "internalType": "string",
              "name": "notes",
              "type": "string"
            }
          ],
          "internalType": "struct VersionRegistry.Version[]",
          "name": "",
          "type": "tuple[]"
        }
      ],
      "stateMutability": "view",
      "type": "function"
    },
    {
      "inputs": [
        {
          "internalType": "string",
          "name": "component",
          "type": "string"
        }
      ],
      "name": "getLatestAddress",
      "outputs": [
        {
          "internalType": "address",
          "name": "",
          "type": "address"
        }
      ],
      "stateMutability": "view",
      "type": "function"
    },
    {
      "inputs": [
        {
          "internalType": "string",
          "name": "component",
          "type": "string"
        }
      ],
      "name": "getLatestVersion",
      "outputs": [
        {
          "components": [
            {
              "internalType": "uint256",
              "name": "version",
              "type": "uint256"
            },
            {
              "internalType": "address",
              "name": "contractAddress",
              "type": "address"
            },
            {
              "internalType": "uint256",
              "name": "deploymentDate",
              "type": "uint256"
            },
            {
              "internalType": "string",
              "name": "notes",
              "type": "string"
            }
          ],
          "internalType": "struct VersionRegistry.Version",
          "name": "",
          "type": "tuple"
        }
      ],
      "stateMutability": "view",
      "type": "function"
    },
    {
      "inputs": [
        {
          "internalType": "bytes32",
          "name": "role",
          "type": "bytes32"
        }
      ],
      "name": "getRoleAdmin",
      "outputs": [
        {
          "internalType": "bytes32",
          "name": "",
          "type": "bytes32"
        }
      ],
      "stateMutability": "view",
      "type": "function"
    },
    {
      "inputs": [
        {
          "internalType": "bytes32",
          "name": "role",
          "type": "bytes32"
        },
        {
          "internalType": "address",
          "name": "account",
          "type": "address"
        }
      ],
      "name": "grantRole",
      "outputs": [],
      "stateMutability": "nonpayable",
      "type": "function"
    },
    {
      "inputs": [
        {
          "internalType": "bytes32",
          "name": "role",
          "type": "bytes32"
        },
        {
          "internalType": "address",
          "name": "account",
          "type": "address"
        }
      ],
      "name": "hasRole",
      "outputs": [
        {
          "internalType": "bool",
          "name": "",
          "type": "bool"
        }
      ],
      "stateMutability": "view",
      "type": "function"
    },
    {
      "inputs": [
        {
          "internalType": "bytes32",
          "name": "role",
          "type": "bytes32"
        },
        {
          "internalType": "address",
          "name": "callerConfirmation",
          "type": "address"
        }
      ],
      "name": "renounceRole",
      "outputs": [],
      "stateMutability": "nonpayable",
      "type": "function"
    },
    {
      "inputs": [
        {
          "internalType": "bytes32",
          "name": "role",
          "type": "bytes32"
        },
        {
          "internalType": "address",
          "name": "account",
          "type": "address"
        }
      ],
      "name": "revokeRole",
      "outputs": [],
      "stateMutability": "nonpayable",
      "type": "function"
    },
    {
      "inputs": [
        {
          "internalType": "string",
          "name": "component",
          "type": "string"
        },
        {
          "internalType": "address",
          "name": "contractAddress",
          "type": "address"
        },
        {
          "internalType": "string",
          "name": "notes",
          "type": "string"
        }
      ],
      "name": "setVersion",
      "outputs": [],
      "stateMutability": "nonpayable",
      "type": "function"
    },
    {
      "inputs": [
        {
          "internalType": "bytes4",
          "name": "interfaceId",
          "type": "bytes4"
        }
      ],
      "name": "supportsInterface",
      "outputs": [
        {
          "internalType": "bool",
          "name": "",
          "type": "bool"
        }
      ],
      "stateMutability": "view",
      "type": "function"
    }
  ],
  "bytecode": "0x608060405234801561001057600080fd5b5061001c60003361004d565b506100477f189ab7a9244df0848122154315af71fe140f3db0fe014031783b0946b8c9d2e33361004d565b506100f9565b6000828152602081815260408083206001600160a01b038516845290915281205460ff166100ef576000838152602081815260408083206001600160a01b03861684529091529020805460ff191660011790556100a73390565b6001600160a01b0316826001600160a01b0316847f2f8788117e7eff1d82e926ec794901d17c78024a50270940304540a733656f0d60405160405180910390a45060016100f3565b5060005b92915050565b610e45806101086000396000f3fe608060405234801561001057600080fd5b50600436106100b45760003560e01c8063cae9676111610071578063cae9676114610155578063d547741f14610175578063e360736e14610188578063f72c0d8b146101a8578063f84f034a146101cf578063fd69bd09146101fa57600080fd5b806301ffc9a7146100b9578063248a9ca3146100e15780632f2ff15d1461011257806336568abe1461012757806391d148541461013a578063a217fddf1461014d575b600080fd5b6100cc6100c7366004610957565b61020d565b60405190151581526020015b60405180910390f35b6101046100ef366004610988565b60009081526020819052604090206001015490565b6040519081526020016100d8565b6101256101203660046109bd565b610244565b005b6101256101353660046109bd565b61026f565b6100cc6101483660046109bd565b6102a7565b610104600081565b610168610163366004610a8e565b6102d0565b6040516100d89190610b56565b6101256101833660046109bd565b6104b8565b61019b610196366004610a8e565b6104dd565b6040516100d89190610b69565b6101047f189ab7a9244df0848122154315af71fe140f3db0fe014031783b0946b8c9d2e381565b6101e26101dd366004610a8e565b610617565b6040516001600160a01b0390911681526020016100d8565b610125610208366004610bce565b61062c565b60006001600160e01b03198216637965db0b60e01b148061023e57506301ffc9a760e01b6001600160e01b03198316145b92915050565b60008281526020819052604090206001015461025f81610810565b610269838361081d565b50505050565b6001600160a01b03811633146102985760405163334bd91960e11b815260040160405180910390fd5b6102a282826108af565b505050565b6000918252602082815260408084206001600160a01b0393909316845291905290205460ff1690565b61030460405180608001604052806000815260200160006001600160a01b0316815260200160008152602001606081525090565b60006002836040516103169190610c47565b9081526020016040518091039020549050600081116103885760405162461bcd60e51b8152602060048201526024808201527f56657273696f6e52656769737472793a20436f6d706f6e656e74206e6f7420666044820152631bdd5b9960e21b60648201526084015b60405180910390fd5b6001836040516103989190610c47565b9081526040519081900360200190206103b2600183610c79565b815481106103c2576103c2610c8c565b9060005260206000209060040201604051806080016040529081600082015481526020016001820160009054906101000a90046001600160a01b03166001600160a01b03166001600160a01b031681526020016002820154815260200160038201805461042e90610ca2565b80601f016020809104026020016040519081016040528092919081815260200182805461045a90610ca2565b80156104a75780601f1061047c576101008083540402835291602001916104a7565b820191906000526020600020905b81548152906001019060200180831161048a57829003601f168201915b505050505081525050915050919050565b6000828152602081905260409020600101546104d381610810565b61026983836108af565b60606001826040516104ef9190610c47565b9081526020016040518091039020805480602002602001604051908101604052809291908181526020016000905b8282101561060c57600084815260209081902060408051608081018252600486029092018054835260018101546001600160a01b03169383019390935260028301549082015260038201805491929160608401919061057b90610ca2565b80601f01602080910402602001604051908101604052809291908181526020018280546105a790610ca2565b80156105f45780601f106105c9576101008083540402835291602001916105f4565b820191906000526020600020905b8154815290600101906020018083116105d757829003601f168201915b5050505050815250508152602001906001019061051d565b505050509050919050565b6000610622826102d0565b6020015192915050565b7f189ab7a9244df0848122154315af71fe140f3db0fe014031783b0946b8c9d2e361065681610810565b6001600160a01b0383166106ac5760405162461bcd60e51b815260206004820152601d60248201527f56657273696f6e52656769737472793a205a65726f2061646472657373000000604482015260640161037f565b60006002856040516106be9190610c47565b90815260200160405180910390205460016106d99190610cdc565b905060006040518060800160405280838152602001866001600160a01b031681526020014281526020018581525090506001866040516107199190610c47565b908152604080516020928190038301902080546001808201835560009283529184902085516004909202019081559284015190830180546001600160a01b0319166001600160a01b0390921691909117905582015160028201556060820151829190600382019061078a9082610d3d565b5050508160028760405161079e9190610c47565b908152602001604051809103902081905550846001600160a01b031682876040516107c99190610c47565b60405180910390207fe4a466b2b9a9f699ec3db30676d5780e30e6790bced23d5e27aa5ea56790203e876040516108009190610dfc565b60405180910390a4505050505050565b61081a813361091a565b50565b600061082983836102a7565b6108a7576000838152602081815260408083206001600160a01b03861684529091529020805460ff1916600117905561085f3390565b6001600160a01b0316826001600160a01b0316847f2f8788117e7eff1d82e926ec794901d17c78024a50270940304540a733656f0d60405160405180910390a450600161023e565b50600061023e565b60006108bb83836102a7565b156108a7576000838152602081815260408083206001600160a01b0386168085529252808320805460ff1916905551339286917ff6391f5c32d9c69d2a47ea670b442974b53935d1edc7fd64eb21e047a839171b9190a450600161023e565b61092482826102a7565b6109535760405163e2517d3f60e01b81526001600160a01b03821660048201526024810183905260440161037f565b5050565b60006020828403121561096957600080fd5b81356001600160e01b03198116811461098157600080fd5b9392505050565b60006020828403121561099a57600080fd5b5035919050565b80356001600160a01b03811681146109b857600080fd5b919050565b600080604083850312156109d057600080fd5b823591506109e0602084016109a1565b90509250929050565b634e487b7160e01b600052604160045260246000fd5b600082601f830112610a1057600080fd5b813567ffffffffffffffff811115610a2a57610a2a6109e9565b604051601f8201601f19908116603f0116810167ffffffffffffffff81118282101715610a5957610a596109e9565b604052818152838201602001851015610a7157600080fd5b816020850160208301376000918101602001919091529392505050565b600060208284031215610aa057600080fd5b813567ffffffffffffffff811115610ab757600080fd5b610ac3848285016109ff565b949350505050565b60005b83811015610ae6578181015183820152602001610ace565b50506000910152565b60008151808452610b07816020860160208601610acb565b601f01601f19169290920160200192915050565b8051825260018060a01b036020820151166020830152604081015160408301526000606082015160806060850152610ac36080850182610aef565b6020815260006109816020830184610b1b565b6000602082016020835280845180835260408501915060408160051b86010192506020860160005b82811015610bc257603f19878603018452610bad858351610b1b565b94506020938401939190910190600101610b91565b50929695505050505050565b600080600060608486031215610be357600080fd5b833567ffffffffffffffff811115610bfa57600080fd5b610c06868287016109ff565b935050610c15602085016109a1565b9150604084013567ffffffffffffffff811115610c3157600080fd5b610c3d868287016109ff565b9150509250925092565b60008251610c59818460208701610acb565b9190910192915050565b634e487b7160e01b600052601160045260246000fd5b8181038181111561023e5761023e610c63565b634e487b7160e01b600052603260045260246000fd5b600181811c90821680610cb657607f821691505b602082108103610cd657634e487b7160e01b600052602260045260246000fd5b50919050565b8082018082111561023e5761023e610c63565b601f8211156102a257806000526020600020601f840160051c81016020851015610d165750805b601f840160051c820191505b81811015610d365760008155600101610d22565b5050505050565b815167ffffffffffffffff811115610d5757610d576109e9565b610d6b81610d658454610ca2565b84610cef565b6020601f821160018114610d9f5760008315610d875750848201515b600019600385901b1c1916600184901b178455610d36565b600084815260208120601f198516915b82811015610dcf5787850151825560209485019460019092019101610daf565b5084821015610ded5786840151600019600387901b60f8161c191681555b50505050600190811b01905550565b6020815260006109816020830184610aef56fea2646970667358221220068afc19bd2a50068baf670921d5a80bf49ab4c0e738d19230a4c0c7d497e27064736f6c634300081a0033",
  "linkReferences": {},
  "deployedLinkReferences": {}
}